{
  "contractName": "CampaignNFT",
  "abi": [
    {
      "inputs": [
        {
          "internalType": "address",
          "name": "_creator",
          "type": "address"
        },
        {
          "internalType": "string",
          "name": "_name",
          "type": "string"
        },
        {
          "internalType": "uint256",
          "name": "_slot",
          "type": "uint256"
        },
        {
          "internalType": "uint256",
          "name": "_price",
          "type": "uint256"
        }
      ],
      "stateMutability": "nonpayable",
      "type": "constructor"
    },
    {
      "anonymous": false,
      "inputs": [
        {
          "indexed": true,
          "internalType": "address",
          "name": "owner",
          "type": "address"
        },
        {
          "indexed": true,
          "internalType": "address",
          "name": "approved",
          "type": "address"
        },
        {
          "indexed": true,
          "internalType": "uint256",
          "name": "tokenId",
          "type": "uint256"
        }
      ],
      "name": "Approval",
      "type": "event"
    },
    {
      "anonymous": false,
      "inputs": [
        {
          "indexed": true,
          "internalType": "address",
          "name": "owner",
          "type": "address"
        },
        {
          "indexed": true,
          "internalType": "address",
          "name": "operator",
          "type": "address"
        },
        {
          "indexed": false,
          "internalType": "bool",
          "name": "approved",
          "type": "bool"
        }
      ],
      "name": "ApprovalForAll",
      "type": "event"
    },
    {
      "anonymous": false,
      "inputs": [
        {
          "indexed": true,
          "internalType": "address",
          "name": "previousOwner",
          "type": "address"
        },
        {
          "indexed": true,
          "internalType": "address",
          "name": "newOwner",
          "type": "address"
        }
      ],
      "name": "OwnershipTransferred",
      "type": "event"
    },
    {
      "anonymous": false,
      "inputs": [
        {
          "indexed": true,
          "internalType": "address",
          "name": "from",
          "type": "address"
        },
        {
          "indexed": true,
          "internalType": "address",
          "name": "to",
          "type": "address"
        },
        {
          "indexed": true,
          "internalType": "uint256",
          "name": "tokenId",
          "type": "uint256"
        }
      ],
      "name": "Transfer",
      "type": "event"
    },
    {
      "anonymous": false,
      "inputs": [
        {
          "indexed": false,
          "internalType": "address",
          "name": "donee",
          "type": "address"
        },
        {
          "indexed": false,
          "internalType": "uint256",
          "name": "amount",
          "type": "uint256"
        }
      ],
      "name": "distributed",
      "type": "event"
    },
    {
      "anonymous": false,
      "inputs": [
        {
          "indexed": false,
          "internalType": "address",
          "name": "donor",
          "type": "address"
        }
      ],
      "name": "donated",
      "type": "event"
    },
    {
      "anonymous": false,
      "inputs": [
        {
          "indexed": false,
          "internalType": "address",
          "name": "donor",
          "type": "address"
        }
      ],
      "name": "minted",
      "type": "event"
    },
    {
      "inputs": [
        {
          "internalType": "address",
          "name": "to",
          "type": "address"
        },
        {
          "internalType": "uint256",
          "name": "tokenId",
          "type": "uint256"
        }
      ],
      "name": "approve",
      "outputs": [],
      "stateMutability": "nonpayable",
      "type": "function"
    },
    {
      "inputs": [
        {
          "internalType": "address",
          "name": "owner",
          "type": "address"
        }
      ],
      "name": "balanceOf",
      "outputs": [
        {
          "internalType": "uint256",
          "name": "",
          "type": "uint256"
        }
      ],
      "stateMutability": "view",
      "type": "function"
    },
    {
      "inputs": [],
      "name": "current",
      "outputs": [
        {
          "internalType": "uint256",
          "name": "",
          "type": "uint256"
        }
      ],
      "stateMutability": "view",
      "type": "function"
    },
    {
      "inputs": [
        {
          "internalType": "address",
          "name": "",
          "type": "address"
        }
      ],
      "name": "doneeToId",
      "outputs": [
        {
          "internalType": "uint256",
          "name": "",
          "type": "uint256"
        }
      ],
      "stateMutability": "view",
      "type": "function"
    },
    {
      "inputs": [
        {
          "internalType": "uint256",
          "name": "",
          "type": "uint256"
        }
      ],
      "name": "donees",
      "outputs": [
        {
          "internalType": "address",
          "name": "wallet",
          "type": "address"
        },
        {
          "internalType": "uint256",
          "name": "amount",
          "type": "uint256"
        }
      ],
      "stateMutability": "view",
      "type": "function"
    },
    {
      "inputs": [],
      "name": "doneesCount",
      "outputs": [
        {
          "internalType": "uint256",
          "name": "",
          "type": "uint256"
        }
      ],
      "stateMutability": "view",
      "type": "function"
    },
    {
      "inputs": [
        {
          "internalType": "address",
          "name": "",
          "type": "address"
        }
      ],
      "name": "donorToId",
      "outputs": [
        {
          "internalType": "uint256",
          "name": "",
          "type": "uint256"
        }
      ],
      "stateMutability": "view",
      "type": "function"
    },
    {
      "inputs": [
        {
          "internalType": "uint256",
          "name": "",
          "type": "uint256"
        }
      ],
      "name": "donors",
      "outputs": [
        {
          "internalType": "address",
          "name": "wallet",
          "type": "address"
        },
        {
          "internalType": "uint256",
          "name": "amount",
          "type": "uint256"
        }
      ],
      "stateMutability": "view",
      "type": "function"
    },
    {
      "inputs": [],
      "name": "donorsCount",
      "outputs": [
        {
          "internalType": "uint256",
          "name": "",
          "type": "uint256"
        }
      ],
      "stateMutability": "view",
      "type": "function"
    },
    {
      "inputs": [],
      "name": "ended",
      "outputs": [
        {
          "internalType": "bool",
          "name": "",
          "type": "bool"
        }
      ],
      "stateMutability": "view",
      "type": "function"
    },
    {
      "inputs": [
        {
          "internalType": "uint256",
          "name": "tokenId",
          "type": "uint256"
        }
      ],
      "name": "getApproved",
      "outputs": [
        {
          "internalType": "address",
          "name": "",
          "type": "address"
        }
      ],
      "stateMutability": "view",
      "type": "function"
    },
    {
      "inputs": [
        {
          "internalType": "address",
          "name": "owner",
          "type": "address"
        },
        {
          "internalType": "address",
          "name": "operator",
          "type": "address"
        }
      ],
      "name": "isApprovedForAll",
      "outputs": [
        {
          "internalType": "bool",
          "name": "",
          "type": "bool"
        }
      ],
      "stateMutability": "view",
      "type": "function"
    },
    {
      "inputs": [],
      "name": "name",
      "outputs": [
        {
          "internalType": "string",
          "name": "",
          "type": "string"
        }
      ],
      "stateMutability": "view",
      "type": "function"
    },
    {
      "inputs": [],
      "name": "owner",
      "outputs": [
        {
          "internalType": "address",
          "name": "",
          "type": "address"
        }
      ],
      "stateMutability": "view",
      "type": "function"
    },
    {
      "inputs": [
        {
          "internalType": "uint256",
          "name": "tokenId",
          "type": "uint256"
        }
      ],
      "name": "ownerOf",
      "outputs": [
        {
          "internalType": "address",
          "name": "",
          "type": "address"
        }
      ],
      "stateMutability": "view",
      "type": "function"
    },
    {
      "inputs": [],
      "name": "price",
      "outputs": [
        {
          "internalType": "uint256",
          "name": "",
          "type": "uint256"
        }
      ],
      "stateMutability": "view",
      "type": "function"
    },
    {
      "inputs": [],
      "name": "renounceOwnership",
      "outputs": [],
      "stateMutability": "nonpayable",
      "type": "function"
    },
    {
      "inputs": [
        {
          "internalType": "address",
          "name": "from",
          "type": "address"
        },
        {
          "internalType": "address",
          "name": "to",
          "type": "address"
        },
        {
          "internalType": "uint256",
          "name": "tokenId",
          "type": "uint256"
        }
      ],
      "name": "safeTransferFrom",
      "outputs": [],
      "stateMutability": "nonpayable",
      "type": "function"
    },
    {
      "inputs": [
        {
          "internalType": "address",
          "name": "from",
          "type": "address"
        },
        {
          "internalType": "address",
          "name": "to",
          "type": "address"
        },
        {
          "internalType": "uint256",
          "name": "tokenId",
          "type": "uint256"
        },
        {
          "internalType": "bytes",
          "name": "_data",
          "type": "bytes"
        }
      ],
      "name": "safeTransferFrom",
      "outputs": [],
      "stateMutability": "nonpayable",
      "type": "function"
    },
    {
      "inputs": [
        {
          "internalType": "address",
          "name": "operator",
          "type": "address"
        },
        {
          "internalType": "bool",
          "name": "approved",
          "type": "bool"
        }
      ],
      "name": "setApprovalForAll",
      "outputs": [],
      "stateMutability": "nonpayable",
      "type": "function"
    },
    {
      "inputs": [],
      "name": "slot",
      "outputs": [
        {
          "internalType": "uint256",
          "name": "",
          "type": "uint256"
        }
      ],
      "stateMutability": "view",
      "type": "function"
    },
    {
      "inputs": [
        {
          "internalType": "bytes4",
          "name": "interfaceId",
          "type": "bytes4"
        }
      ],
      "name": "supportsInterface",
      "outputs": [
        {
          "internalType": "bool",
          "name": "",
          "type": "bool"
        }
      ],
      "stateMutability": "view",
      "type": "function"
    },
    {
      "inputs": [],
      "name": "symbol",
      "outputs": [
        {
          "internalType": "string",
          "name": "",
          "type": "string"
        }
      ],
      "stateMutability": "view",
      "type": "function"
    },
    {
      "inputs": [],
      "name": "tokenId",
      "outputs": [
        {
          "internalType": "uint256",
          "name": "",
          "type": "uint256"
        }
      ],
      "stateMutability": "view",
      "type": "function"
    },
    {
      "inputs": [
        {
          "internalType": "uint256",
          "name": "tokenId",
          "type": "uint256"
        }
      ],
      "name": "tokenURI",
      "outputs": [
        {
          "internalType": "string",
          "name": "",
          "type": "string"
        }
      ],
      "stateMutability": "view",
      "type": "function"
    },
    {
      "inputs": [
        {
          "internalType": "address",
          "name": "from",
          "type": "address"
        },
        {
          "internalType": "address",
          "name": "to",
          "type": "address"
        },
        {
          "internalType": "uint256",
          "name": "tokenId",
          "type": "uint256"
        }
      ],
      "name": "transferFrom",
      "outputs": [],
      "stateMutability": "nonpayable",
      "type": "function"
    },
    {
      "inputs": [
        {
          "internalType": "address",
          "name": "newOwner",
          "type": "address"
        }
      ],
      "name": "transferOwnership",
      "outputs": [],
      "stateMutability": "nonpayable",
      "type": "function"
    },
    {
      "inputs": [
        {
          "internalType": "string",
          "name": "",
          "type": "string"
        }
      ],
      "name": "usedURI",
      "outputs": [
        {
          "internalType": "bool",
          "name": "",
          "type": "bool"
        }
      ],
      "stateMutability": "view",
      "type": "function"
    },
    {
      "inputs": [],
      "name": "isDonor",
      "outputs": [
        {
          "internalType": "bool",
          "name": "",
          "type": "bool"
        }
      ],
      "stateMutability": "nonpayable",
      "type": "function"
    },
    {
      "inputs": [],
      "name": "isDonee",
      "outputs": [
        {
          "internalType": "bool",
          "name": "",
          "type": "bool"
        }
      ],
      "stateMutability": "nonpayable",
      "type": "function"
    },
    {
      "inputs": [
        {
          "internalType": "string",
          "name": "_tokenURI",
          "type": "string"
        }
      ],
      "name": "mint",
      "outputs": [],
      "stateMutability": "payable",
      "type": "function"
    },
    {
      "inputs": [],
      "name": "donate",
      "outputs": [],
      "stateMutability": "payable",
      "type": "function"
    },
    {
      "inputs": [],
      "name": "applyToDonee",
      "outputs": [],
      "stateMutability": "nonpayable",
      "type": "function"
    },
    {
      "inputs": [
        {
          "internalType": "uint256",
          "name": "_doneeId",
          "type": "uint256"
        },
        {
          "internalType": "uint256",
          "name": "_amount",
          "type": "uint256"
        }
      ],
      "name": "distribute",
      "outputs": [],
      "stateMutability": "nonpayable",
      "type": "function"
    },
    {
      "inputs": [],
      "name": "end",
      "outputs": [],
      "stateMutability": "nonpayable",
      "type": "function"
    },
    {
      "inputs": [],
      "name": "open",
      "outputs": [],
      "stateMutability": "nonpayable",
      "type": "function"
    }
  ],
  "bytecode": "0x60806040523480156200001157600080fd5b5060405162004cc438038062004cc4833981810160405281019062000037919062000434565b8283620000596200004d620000d960201b60201c565b620000e160201b60201c565b816001908051906020019062000071929190620002e4565b5080600290805190602001906200008a929190620002e4565b50505081600a819055508060098190555060006008819055506000600b60006101000a81548160ff021916908315150217905550620000cf84620001a560201b60201c565b505050506200075b565b600033905090565b60008060009054906101000a900473ffffffffffffffffffffffffffffffffffffffff169050816000806101000a81548173ffffffffffffffffffffffffffffffffffffffff021916908373ffffffffffffffffffffffffffffffffffffffff1602179055508173ffffffffffffffffffffffffffffffffffffffff168173ffffffffffffffffffffffffffffffffffffffff167f8be0079c531659141344cd1fd0a4f28419497f9722a3daafe3b4186f6b6457e060405160405180910390a35050565b620001b5620000d960201b60201c565b73ffffffffffffffffffffffffffffffffffffffff16620001db620002bb60201b60201c565b73ffffffffffffffffffffffffffffffffffffffff161462000234576040517f08c379a00000000000000000000000000000000000000000000000000000000081526004016200022b9062000585565b60405180910390fd5b600073ffffffffffffffffffffffffffffffffffffffff168173ffffffffffffffffffffffffffffffffffffffff161415620002a7576040517f08c379a00000000000000000000000000000000000000000000000000000000081526004016200029e9062000563565b60405180910390fd5b620002b881620000e160201b60201c565b50565b60008060009054906101000a900473ffffffffffffffffffffffffffffffffffffffff16905090565b828054620002f29062000693565b90600052602060002090601f01602090048101928262000316576000855562000362565b82601f106200033157805160ff191683800117855562000362565b8280016001018555821562000362579182015b828111156200036157825182559160200191906001019062000344565b5b50905062000371919062000375565b5090565b5b808211156200039057600081600090555060010162000376565b5090565b6000620003ab620003a584620005db565b620005a7565b905082815260208101848484011115620003c457600080fd5b620003d18482856200065d565b509392505050565b600081519050620003ea8162000727565b92915050565b600082601f8301126200040257600080fd5b81516200041484826020860162000394565b91505092915050565b6000815190506200042e8162000741565b92915050565b600080600080608085870312156200044b57600080fd5b60006200045b87828801620003d9565b945050602085015167ffffffffffffffff8111156200047957600080fd5b6200048787828801620003f0565b93505060406200049a878288016200041d565b9250506060620004ad878288016200041d565b91505092959194509250565b6000620004c86026836200060e565b91507f4f776e61626c653a206e6577206f776e657220697320746865207a65726f206160008301527f64647265737300000000000000000000000000000000000000000000000000006020830152604082019050919050565b6000620005306020836200060e565b91507f4f776e61626c653a2063616c6c6572206973206e6f7420746865206f776e65726000830152602082019050919050565b600060208201905081810360008301526200057e81620004b9565b9050919050565b60006020820190508181036000830152620005a08162000521565b9050919050565b6000604051905081810181811067ffffffffffffffff82111715620005d157620005d0620006f8565b5b8060405250919050565b600067ffffffffffffffff821115620005f957620005f8620006f8565b5b601f19601f8301169050602081019050919050565b600082825260208201905092915050565b60006200062c8262000633565b9050919050565b600073ffffffffffffffffffffffffffffffffffffffff82169050919050565b6000819050919050565b60005b838110156200067d57808201518184015260208101905062000660565b838111156200068d576000848401525b50505050565b60006002820490506001821680620006ac57607f821691505b60208210811415620006c357620006c2620006c9565b5b50919050565b7f4e487b7100000000000000000000000000000000000000000000000000000000600052602260045260246000fd5b7f4e487b7100000000000000000000000000000000000000000000000000000000600052604160045260246000fd5b62000732816200061f565b81146200073e57600080fd5b50565b6200074c8162000653565b81146200075857600080fd5b50565b614559806200076b6000396000f3fe60806040526004361061020f5760003560e01c806370a0823111610118578063b88d4fde116100a0578063e985e9c51161006f578063e985e9c5146107bc578063ed88c68e146107f9578063efbe1c1c14610803578063f2fde38b1461081a578063fcfff16f146108435761020f565b8063b88d4fde146106fd578063c87b56dd14610726578063d6c0a3ef14610763578063d85d3d27146107a05761020f565b806395d89b41116100e757806395d89b41146106285780639fa6a6e3146106535780639ff534dc1461067e578063a035b1fe146106a9578063a22cb465146106d45761020f565b806370a0823114610580578063715018a6146105bd5780637625391a146105d45780638da5cb5b146105fd5761020f565b806322c8077f1161019b57806342842e0e1161016a57806342842e0e1461048757806349a5fdcd146104b05780634abfa163146104c75780636352211e146105055780636e4d2bec146105425761020f565b806322c8077f146103dd57806323b872dd146104085780632d7860221461043157806330c26c2f1461045c5761020f565b80630a40a2b1116101e25780630a40a2b1146102e25780630d8792601461031f57806312fa6feb1461035c57806317d70f7c146103875780631a88bc66146103b25761020f565b806301ffc9a71461021457806306fdde0314610251578063081812fc1461027c578063095ea7b3146102b9575b600080fd5b34801561022057600080fd5b5061023b60048036038101906102369190613156565b61085a565b6040516102489190613d1b565b60405180910390f35b34801561025d57600080fd5b5061026661093c565b6040516102739190613d36565b60405180910390f35b34801561028857600080fd5b506102a3600480360381019061029e91906131e9565b6109ce565b6040516102b09190613c62565b60405180910390f35b3480156102c557600080fd5b506102e060048036038101906102db919061311a565b610a53565b005b3480156102ee57600080fd5b50610309600480360381019061030491906131a8565b610b6b565b6040516103169190613d1b565b60405180910390f35b34801561032b57600080fd5b5061034660048036038101906103419190612faf565b610ba1565b60405161035391906140b8565b60405180910390f35b34801561036857600080fd5b50610371610bb9565b60405161037e9190613d1b565b60405180910390f35b34801561039357600080fd5b5061039c610bcc565b6040516103a991906140b8565b60405180910390f35b3480156103be57600080fd5b506103c7610bd2565b6040516103d491906140b8565b60405180910390f35b3480156103e957600080fd5b506103f2610bd8565b6040516103ff9190613d1b565b60405180910390f35b34801561041457600080fd5b5061042f600480360381019061042a9190613014565b610c22565b005b34801561043d57600080fd5b50610446610c82565b60405161045391906140b8565b60405180910390f35b34801561046857600080fd5b50610471610c88565b60405161047e9190613d1b565b60405180910390f35b34801561049357600080fd5b506104ae60048036038101906104a99190613014565b610cd2565b005b3480156104bc57600080fd5b506104c5610cf2565b005b3480156104d357600080fd5b506104ee60048036038101906104e991906131e9565b610ec1565b6040516104fc929190613cf2565b60405180910390f35b34801561051157600080fd5b5061052c600480360381019061052791906131e9565b610f05565b6040516105399190613c62565b60405180910390f35b34801561054e57600080fd5b50610569600480360381019061056491906131e9565b610fb7565b604051610577929190613cf2565b60405180910390f35b34801561058c57600080fd5b506105a760048036038101906105a29190612faf565b610ffb565b6040516105b491906140b8565b60405180910390f35b3480156105c957600080fd5b506105d26110b3565b005b3480156105e057600080fd5b506105fb60048036038101906105f69190613212565b61113b565b005b34801561060957600080fd5b50610612611351565b60405161061f9190613c62565b60405180910390f35b34801561063457600080fd5b5061063d61137a565b60405161064a9190613d36565b60405180910390f35b34801561065f57600080fd5b5061066861140c565b60405161067591906140b8565b60405180910390f35b34801561068a57600080fd5b50610693611412565b6040516106a091906140b8565b60405180910390f35b3480156106b557600080fd5b506106be611418565b6040516106cb91906140b8565b60405180910390f35b3480156106e057600080fd5b506106fb60048036038101906106f691906130de565b61141e565b005b34801561070957600080fd5b50610724600480360381019061071f9190613063565b61159f565b005b34801561073257600080fd5b5061074d600480360381019061074891906131e9565b611601565b60405161075a9190613d36565b60405180910390f35b34801561076f57600080fd5b5061078a60048036038101906107859190612faf565b611753565b60405161079791906140b8565b60405180910390f35b6107ba60048036038101906107b591906131a8565b61176b565b005b3480156107c857600080fd5b506107e360048036038101906107de9190612fd8565b611b09565b6040516107f09190613d1b565b60405180910390f35b610801611b9d565b005b34801561080f57600080fd5b50610818611e37565b005b34801561082657600080fd5b50610841600480360381019061083c9190612faf565b611f26565b005b34801561084f57600080fd5b5061085861201e565b005b60007f80ac58cd000000000000000000000000000000000000000000000000000000007bffffffffffffffffffffffffffffffffffffffffffffffffffffffff1916827bffffffffffffffffffffffffffffffffffffffffffffffffffffffff1916148061092557507f5b5e139f000000000000000000000000000000000000000000000000000000007bffffffffffffffffffffffffffffffffffffffffffffffffffffffff1916827bffffffffffffffffffffffffffffffffffffffffffffffffffffffff1916145b8061093557506109348261210d565b5b9050919050565b60606001805461094b9061434e565b80601f01602080910402602001604051908101604052809291908181526020018280546109779061434e565b80156109c45780601f10610999576101008083540402835291602001916109c4565b820191906000526020600020905b8154815290600101906020018083116109a757829003601f168201915b5050505050905090565b60006109d982612177565b610a18576040517f08c379a0000000000000000000000000000000000000000000000000000000008152600401610a0f90613f78565b60405180910390fd5b6005600083815260200190815260200160002060009054906101000a900473ffffffffffffffffffffffffffffffffffffffff169050919050565b6000610a5e82610f05565b90508073ffffffffffffffffffffffffffffffffffffffff168373ffffffffffffffffffffffffffffffffffffffff161415610acf576040517f08c379a0000000000000000000000000000000000000000000000000000000008152600401610ac690614038565b60405180910390fd5b8073ffffffffffffffffffffffffffffffffffffffff16610aee6121e3565b73ffffffffffffffffffffffffffffffffffffffff161480610b1d5750610b1c81610b176121e3565b611b09565b5b610b5c576040517f08c379a0000000000000000000000000000000000000000000000000000000008152600401610b5390613eb8565b60405180910390fd5b610b6683836121eb565b505050565b6013818051602081018201805184825260208301602085012081835280955050505050506000915054906101000a900460ff1681565b60126020528060005260406000206000915090505481565b600b60009054906101000a900460ff1681565b600c5481565b600a5481565b600080601160003373ffffffffffffffffffffffffffffffffffffffff1673ffffffffffffffffffffffffffffffffffffffff168152602001908152602001600020541415905090565b610c33610c2d6121e3565b826122a4565b610c72576040517f08c379a0000000000000000000000000000000000000000000000000000000008152600401610c6990614058565b60405180910390fd5b610c7d838383612382565b505050565b600e5481565b600080601260003373ffffffffffffffffffffffffffffffffffffffff1673ffffffffffffffffffffffffffffffffffffffff168152602001908152602001600020541415905090565b610ced8383836040518060200160405280600081525061159f565b505050565b60001515600b60009054906101000a900460ff16151514610d48576040517f08c379a0000000000000000000000000000000000000000000000000000000008152600401610d3f90613d98565b60405180910390fd5b6000601260003373ffffffffffffffffffffffffffffffffffffffff1673ffffffffffffffffffffffffffffffffffffffff1681526020019081526020016000205414610dca576040517f08c379a0000000000000000000000000000000000000000000000000000000008152600401610dc190614098565b60405180910390fd5b6001600e6000828254610ddd91906141a7565b9250508190555060405180604001604052803373ffffffffffffffffffffffffffffffffffffffff1681526020016000815250600f6000600e54815260200190815260200160002060008201518160000160006101000a81548173ffffffffffffffffffffffffffffffffffffffff021916908373ffffffffffffffffffffffffffffffffffffffff16021790555060208201518160010155905050600e54601260003373ffffffffffffffffffffffffffffffffffffffff1673ffffffffffffffffffffffffffffffffffffffff16815260200190815260200160002081905550565b60106020528060005260406000206000915090508060000160009054906101000a900473ffffffffffffffffffffffffffffffffffffffff16908060010154905082565b6000806003600084815260200190815260200160002060009054906101000a900473ffffffffffffffffffffffffffffffffffffffff169050600073ffffffffffffffffffffffffffffffffffffffff168173ffffffffffffffffffffffffffffffffffffffff161415610fae576040517f08c379a0000000000000000000000000000000000000000000000000000000008152600401610fa590613ef8565b60405180910390fd5b80915050919050565b600f6020528060005260406000206000915090508060000160009054906101000a900473ffffffffffffffffffffffffffffffffffffffff16908060010154905082565b60008073ffffffffffffffffffffffffffffffffffffffff168273ffffffffffffffffffffffffffffffffffffffff16141561106c576040517f08c379a000000000000000000000000000000000000000000000000000000000815260040161106390613ed8565b60405180910390fd5b600460008373ffffffffffffffffffffffffffffffffffffffff1673ffffffffffffffffffffffffffffffffffffffff168152602001908152602001600020549050919050565b6110bb6121e3565b73ffffffffffffffffffffffffffffffffffffffff166110d9611351565b73ffffffffffffffffffffffffffffffffffffffff161461112f576040517f08c379a000000000000000000000000000000000000000000000000000000000815260040161112690613f98565b60405180910390fd5b61113960006125de565b565b6111436121e3565b73ffffffffffffffffffffffffffffffffffffffff16611161611351565b73ffffffffffffffffffffffffffffffffffffffff16146111b7576040517f08c379a00000000000000000000000000000000000000000000000000000000081526004016111ae90613f98565b60405180910390fd5b600b60009054906101000a900460ff16611206576040517f08c379a00000000000000000000000000000000000000000000000000000000081526004016111fd90614078565b60405180910390fd5b60085481111561124b576040517f08c379a000000000000000000000000000000000000000000000000000000000815260040161124290613e58565b60405180910390fd5b6000600f600084815260200190815260200160002060000160009054906101000a900473ffffffffffffffffffffffffffffffffffffffff1690508073ffffffffffffffffffffffffffffffffffffffff166108fc839081150290604051600060405180830381858888f193505050501580156112cc573d6000803e3d6000fd5b5081600860008282546112df919061422e565b9250508190555081600f6000858152602001908152602001600020600101600082825461130c91906141a7565b925050819055507f774c33ab58e0ee92b864f81d9310d1b9b002c5941b4f5275a0a95255856f546e8183604051611344929190613c7d565b60405180910390a1505050565b60008060009054906101000a900473ffffffffffffffffffffffffffffffffffffffff16905090565b6060600280546113899061434e565b80601f01602080910402602001604051908101604052809291908181526020018280546113b59061434e565b80156114025780601f106113d757610100808354040283529160200191611402565b820191906000526020600020905b8154815290600101906020018083116113e557829003601f168201915b5050505050905090565b60085481565b600d5481565b60095481565b6114266121e3565b73ffffffffffffffffffffffffffffffffffffffff168273ffffffffffffffffffffffffffffffffffffffff161415611494576040517f08c379a000000000000000000000000000000000000000000000000000000000815260040161148b90613e18565b60405180910390fd5b80600660006114a16121e3565b73ffffffffffffffffffffffffffffffffffffffff1673ffffffffffffffffffffffffffffffffffffffff16815260200190815260200160002060008473ffffffffffffffffffffffffffffffffffffffff1673ffffffffffffffffffffffffffffffffffffffff16815260200190815260200160002060006101000a81548160ff0219169083151502179055508173ffffffffffffffffffffffffffffffffffffffff1661154e6121e3565b73ffffffffffffffffffffffffffffffffffffffff167f17307eab39ab6107e8899845ad3d59bd9653f200f220920489ca2b5937696c31836040516115939190613d1b565b60405180910390a35050565b6115b06115aa6121e3565b836122a4565b6115ef576040517f08c379a00000000000000000000000000000000000000000000000000000000081526004016115e690614058565b60405180910390fd5b6115fb848484846126a2565b50505050565b606061160c82612177565b61164b576040517f08c379a000000000000000000000000000000000000000000000000000000000815260040161164290613f58565b60405180910390fd5b600060076000848152602001908152602001600020805461166b9061434e565b80601f01602080910402602001604051908101604052809291908181526020018280546116979061434e565b80156116e45780601f106116b9576101008083540402835291602001916116e4565b820191906000526020600020905b8154815290600101906020018083116116c757829003601f168201915b5050505050905060006116f56126fe565b905060008151141561170b57819250505061174e565b600082511115611740578082604051602001611728929190613c3e565b6040516020818303038152906040529250505061174e565b61174984612715565b925050505b919050565b60116020528060005260406000206000915090505481565b6009543410156117b0576040517f08c379a00000000000000000000000000000000000000000000000000000000081526004016117a790613e38565b60405180910390fd5b60001515600b60009054906101000a900460ff16151514611806576040517f08c379a00000000000000000000000000000000000000000000000000000000081526004016117fd90613d98565b60405180910390fd5b6000600a541161184b576040517f08c379a000000000000000000000000000000000000000000000000000000000815260040161184290613d58565b60405180910390fd5b6000151560138260405161185f9190613c27565b908152602001604051809103902060009054906101000a900460ff161515146118bd576040517f08c379a00000000000000000000000000000000000000000000000000000000081526004016118b490614018565b60405180910390fd5b34600860008282546118cf91906141a7565b925050819055506000601160003373ffffffffffffffffffffffffffffffffffffffff1673ffffffffffffffffffffffffffffffffffffffff168152602001908152602001600020541461198e573460106000601160003373ffffffffffffffffffffffffffffffffffffffff1673ffffffffffffffffffffffffffffffffffffffff168152602001908152602001600020548152602001908152602001600020600101600082825461198291906141a7565b92505081905550611a83565b6001600d60008282546119a191906141a7565b9250508190555060405180604001604052803373ffffffffffffffffffffffffffffffffffffffff1681526020013481525060106000600d54815260200190815260200160002060008201518160000160006101000a81548173ffffffffffffffffffffffffffffffffffffffff021916908373ffffffffffffffffffffffffffffffffffffffff16021790555060208201518160010155905050600d54601160003373ffffffffffffffffffffffffffffffffffffffff1673ffffffffffffffffffffffffffffffffffffffff168152602001908152602001600020819055505b611a8f33600c546127bc565b611a9b600c54826127da565b6001600c6000828254611aae91906141a7565b925050819055506001600a6000828254611ac8919061422e565b925050819055507f1e7269c5e216aef80eb002ee0e06475f7f15cded97ccfed2584a614250688d5233604051611afe9190613c62565b60405180910390a150565b6000600660008473ffffffffffffffffffffffffffffffffffffffff1673ffffffffffffffffffffffffffffffffffffffff16815260200190815260200160002060008373ffffffffffffffffffffffffffffffffffffffff1673ffffffffffffffffffffffffffffffffffffffff16815260200190815260200160002060009054906101000a900460ff16905092915050565b600954341015611be2576040517f08c379a0000000000000000000000000000000000000000000000000000000008152600401611bd990613e38565b60405180910390fd5b60001515600b60009054906101000a900460ff16151514611c38576040517f08c379a0000000000000000000000000000000000000000000000000000000008152600401611c2f90613d98565b60405180910390fd5b3460086000828254611c4a91906141a7565b925050819055506000601160003373ffffffffffffffffffffffffffffffffffffffff1673ffffffffffffffffffffffffffffffffffffffff1681526020019081526020016000205414611d09573460106000601160003373ffffffffffffffffffffffffffffffffffffffff1673ffffffffffffffffffffffffffffffffffffffff1681526020019081526020016000205481526020019081526020016000206001016000828254611cfd91906141a7565b92505081905550611dfe565b6001600d6000828254611d1c91906141a7565b9250508190555060405180604001604052803373ffffffffffffffffffffffffffffffffffffffff1681526020013481525060106000600d54815260200190815260200160002060008201518160000160006101000a81548173ffffffffffffffffffffffffffffffffffffffff021916908373ffffffffffffffffffffffffffffffffffffffff16021790555060208201518160010155905050600d54601160003373ffffffffffffffffffffffffffffffffffffffff1673ffffffffffffffffffffffffffffffffffffffff168152602001908152602001600020819055505b7ffb690dcca591aa70d5b651edaf27fedd3e9f79a6ecfc63e10de202ad0a698e8a33604051611e2d9190613c62565b60405180910390a1565b611e3f6121e3565b73ffffffffffffffffffffffffffffffffffffffff16611e5d611351565b73ffffffffffffffffffffffffffffffffffffffff1614611eb3576040517f08c379a0000000000000000000000000000000000000000000000000000000008152600401611eaa90613f98565b60405180910390fd5b60001515600b60009054906101000a900460ff16151514611f09576040517f08c379a0000000000000000000000000000000000000000000000000000000008152600401611f0090613ff8565b60405180910390fd5b6001600b60006101000a81548160ff021916908315150217905550565b611f2e6121e3565b73ffffffffffffffffffffffffffffffffffffffff16611f4c611351565b73ffffffffffffffffffffffffffffffffffffffff1614611fa2576040517f08c379a0000000000000000000000000000000000000000000000000000000008152600401611f9990613f98565b60405180910390fd5b600073ffffffffffffffffffffffffffffffffffffffff168173ffffffffffffffffffffffffffffffffffffffff161415612012576040517f08c379a000000000000000000000000000000000000000000000000000000000815260040161200990613db8565b60405180910390fd5b61201b816125de565b50565b6120266121e3565b73ffffffffffffffffffffffffffffffffffffffff16612044611351565b73ffffffffffffffffffffffffffffffffffffffff161461209a576040517f08c379a000000000000000000000000000000000000000000000000000000000815260040161209190613f98565b60405180910390fd5b60011515600b60009054906101000a900460ff161515146120f0576040517f08c379a00000000000000000000000000000000000000000000000000000000081526004016120e790613e98565b60405180910390fd5b6000600b60006101000a81548160ff021916908315150217905550565b60007f01ffc9a7000000000000000000000000000000000000000000000000000000007bffffffffffffffffffffffffffffffffffffffffffffffffffffffff1916827bffffffffffffffffffffffffffffffffffffffffffffffffffffffff1916149050919050565b60008073ffffffffffffffffffffffffffffffffffffffff166003600084815260200190815260200160002060009054906101000a900473ffffffffffffffffffffffffffffffffffffffff1673ffffffffffffffffffffffffffffffffffffffff1614159050919050565b600033905090565b816005600083815260200190815260200160002060006101000a81548173ffffffffffffffffffffffffffffffffffffffff021916908373ffffffffffffffffffffffffffffffffffffffff160217905550808273ffffffffffffffffffffffffffffffffffffffff1661225e83610f05565b73ffffffffffffffffffffffffffffffffffffffff167f8c5be1e5ebec7d5bd14f71427d1e84f3dd0314c0f7b2291e5b200ac8c7c3b92560405160405180910390a45050565b60006122af82612177565b6122ee576040517f08c379a00000000000000000000000000000000000000000000000000000000081526004016122e590613e78565b60405180910390fd5b60006122f983610f05565b90508073ffffffffffffffffffffffffffffffffffffffff168473ffffffffffffffffffffffffffffffffffffffff16148061236857508373ffffffffffffffffffffffffffffffffffffffff16612350846109ce565b73ffffffffffffffffffffffffffffffffffffffff16145b8061237957506123788185611b09565b5b91505092915050565b8273ffffffffffffffffffffffffffffffffffffffff166123a282610f05565b73ffffffffffffffffffffffffffffffffffffffff16146123f8576040517f08c379a00000000000000000000000000000000000000000000000000000000081526004016123ef90613fb8565b60405180910390fd5b600073ffffffffffffffffffffffffffffffffffffffff168273ffffffffffffffffffffffffffffffffffffffff161415612468576040517f08c379a000000000000000000000000000000000000000000000000000000000815260040161245f90613df8565b60405180910390fd5b61247383838361284e565b61247e6000826121eb565b6001600460008573ffffffffffffffffffffffffffffffffffffffff1673ffffffffffffffffffffffffffffffffffffffff16815260200190815260200160002060008282546124ce919061422e565b925050819055506001600460008473ffffffffffffffffffffffffffffffffffffffff1673ffffffffffffffffffffffffffffffffffffffff168152602001908152602001600020600082825461252591906141a7565b92505081905550816003600083815260200190815260200160002060006101000a81548173ffffffffffffffffffffffffffffffffffffffff021916908373ffffffffffffffffffffffffffffffffffffffff160217905550808273ffffffffffffffffffffffffffffffffffffffff168473ffffffffffffffffffffffffffffffffffffffff167fddf252ad1be2c89b69c2b068fc378daa952ba7f163c4a11628f55a4df523b3ef60405160405180910390a4505050565b60008060009054906101000a900473ffffffffffffffffffffffffffffffffffffffff169050816000806101000a81548173ffffffffffffffffffffffffffffffffffffffff021916908373ffffffffffffffffffffffffffffffffffffffff1602179055508173ffffffffffffffffffffffffffffffffffffffff168173ffffffffffffffffffffffffffffffffffffffff167f8be0079c531659141344cd1fd0a4f28419497f9722a3daafe3b4186f6b6457e060405160405180910390a35050565b6126ad848484612382565b6126b984848484612853565b6126f8576040517f08c379a00000000000000000000000000000000000000000000000000000000081526004016126ef90613d78565b60405180910390fd5b50505050565b606060405180602001604052806000815250905090565b606061272082612177565b61275f576040517f08c379a000000000000000000000000000000000000000000000000000000000815260040161275690613fd8565b60405180910390fd5b60006127696126fe565b9050600081511161278957604051806020016040528060008152506127b4565b80612793846129ea565b6040516020016127a4929190613c3e565b6040516020818303038152906040525b915050919050565b6127d6828260405180602001604052806000815250612b97565b5050565b6127e382612177565b612822576040517f08c379a000000000000000000000000000000000000000000000000000000000815260040161281990613f18565b60405180910390fd5b80600760008481526020019081526020016000209080519060200190612849929190612dd3565b505050565b505050565b60006128748473ffffffffffffffffffffffffffffffffffffffff16612bf2565b156129dd578373ffffffffffffffffffffffffffffffffffffffff1663150b7a0261289d6121e3565b8786866040518563ffffffff1660e01b81526004016128bf9493929190613ca6565b602060405180830381600087803b1580156128d957600080fd5b505af192505050801561290a57506040513d601f19601f82011682018060405250810190612907919061317f565b60015b61298d573d806000811461293a576040519150601f19603f3d011682016040523d82523d6000602084013e61293f565b606091505b50600081511415612985576040517f08c379a000000000000000000000000000000000000000000000000000000000815260040161297c90613d78565b60405180910390fd5b805181602001fd5b63150b7a0260e01b7bffffffffffffffffffffffffffffffffffffffffffffffffffffffff1916817bffffffffffffffffffffffffffffffffffffffffffffffffffffffff1916149150506129e2565b600190505b949350505050565b60606000821415612a32576040518060400160405280600181526020017f30000000000000000000000000000000000000000000000000000000000000008152509050612b92565b600082905060005b60008214612a64578080612a4d90614380565b915050600a82612a5d91906141fd565b9150612a3a565b60008167ffffffffffffffff811115612aa6577f4e487b7100000000000000000000000000000000000000000000000000000000600052604160045260246000fd5b6040519080825280601f01601f191660200182016040528015612ad85781602001600182028036833780820191505090505b5090505b60008514612b8b57600182612af1919061422e565b9150600a85612b0091906143c9565b6030612b0c91906141a7565b60f81b818381518110612b48577f4e487b7100000000000000000000000000000000000000000000000000000000600052603260045260246000fd5b60200101907effffffffffffffffffffffffffffffffffffffffffffffffffffffffffffff1916908160001a905350600a85612b8491906141fd565b9450612adc565b8093505050505b919050565b612ba18383612c05565b612bae6000848484612853565b612bed576040517f08c379a0000000000000000000000000000000000000000000000000000000008152600401612be490613d78565b60405180910390fd5b505050565b600080823b905060008111915050919050565b600073ffffffffffffffffffffffffffffffffffffffff168273ffffffffffffffffffffffffffffffffffffffff161415612c75576040517f08c379a0000000000000000000000000000000000000000000000000000000008152600401612c6c90613f38565b60405180910390fd5b612c7e81612177565b15612cbe576040517f08c379a0000000000000000000000000000000000000000000000000000000008152600401612cb590613dd8565b60405180910390fd5b612cca6000838361284e565b6001600460008473ffffffffffffffffffffffffffffffffffffffff1673ffffffffffffffffffffffffffffffffffffffff1681526020019081526020016000206000828254612d1a91906141a7565b92505081905550816003600083815260200190815260200160002060006101000a81548173ffffffffffffffffffffffffffffffffffffffff021916908373ffffffffffffffffffffffffffffffffffffffff160217905550808273ffffffffffffffffffffffffffffffffffffffff16600073ffffffffffffffffffffffffffffffffffffffff167fddf252ad1be2c89b69c2b068fc378daa952ba7f163c4a11628f55a4df523b3ef60405160405180910390a45050565b828054612ddf9061434e565b90600052602060002090601f016020900481019282612e015760008555612e48565b82601f10612e1a57805160ff1916838001178555612e48565b82800160010185558215612e48579182015b82811115612e47578251825591602001919060010190612e2c565b5b509050612e559190612e59565b5090565b5b80821115612e72576000816000905550600101612e5a565b5090565b6000612e89612e8484614104565b6140d3565b905082815260208101848484011115612ea157600080fd5b612eac84828561430c565b509392505050565b6000612ec7612ec284614134565b6140d3565b905082815260208101848484011115612edf57600080fd5b612eea84828561430c565b509392505050565b600081359050612f01816144c7565b92915050565b600081359050612f16816144de565b92915050565b600081359050612f2b816144f5565b92915050565b600081519050612f40816144f5565b92915050565b600082601f830112612f5757600080fd5b8135612f67848260208601612e76565b91505092915050565b600082601f830112612f8157600080fd5b8135612f91848260208601612eb4565b91505092915050565b600081359050612fa98161450c565b92915050565b600060208284031215612fc157600080fd5b6000612fcf84828501612ef2565b91505092915050565b60008060408385031215612feb57600080fd5b6000612ff985828601612ef2565b925050602061300a85828601612ef2565b9150509250929050565b60008060006060848603121561302957600080fd5b600061303786828701612ef2565b935050602061304886828701612ef2565b925050604061305986828701612f9a565b9150509250925092565b6000806000806080858703121561307957600080fd5b600061308787828801612ef2565b945050602061309887828801612ef2565b93505060406130a987828801612f9a565b925050606085013567ffffffffffffffff8111156130c657600080fd5b6130d287828801612f46565b91505092959194509250565b600080604083850312156130f157600080fd5b60006130ff85828601612ef2565b925050602061311085828601612f07565b9150509250929050565b6000806040838503121561312d57600080fd5b600061313b85828601612ef2565b925050602061314c85828601612f9a565b9150509250929050565b60006020828403121561316857600080fd5b600061317684828501612f1c565b91505092915050565b60006020828403121561319157600080fd5b600061319f84828501612f31565b91505092915050565b6000602082840312156131ba57600080fd5b600082013567ffffffffffffffff8111156131d457600080fd5b6131e084828501612f70565b91505092915050565b6000602082840312156131fb57600080fd5b600061320984828501612f9a565b91505092915050565b6000806040838503121561322557600080fd5b600061323385828601612f9a565b925050602061324485828601612f9a565b9150509250929050565b613257816142d6565b82525050565b61326681614262565b82525050565b61327581614274565b82525050565b600061328682614164565b613290818561417a565b93506132a081856020860161431b565b6132a9816144b6565b840191505092915050565b60006132bf8261416f565b6132c9818561418b565b93506132d981856020860161431b565b6132e2816144b6565b840191505092915050565b60006132f88261416f565b613302818561419c565b935061331281856020860161431b565b80840191505092915050565b600061332b60188361418b565b91507f43616d706169676e20686173206e6f206e667420736c6f7400000000000000006000830152602082019050919050565b600061336b60328361418b565b91507f4552433732313a207472616e7366657220746f206e6f6e20455243373231526560008301527f63656976657220696d706c656d656e74657200000000000000000000000000006020830152604082019050919050565b60006133d160128361418b565b91507f43616d706169676e20697320636c6f73656400000000000000000000000000006000830152602082019050919050565b600061341160268361418b565b91507f4f776e61626c653a206e6577206f776e657220697320746865207a65726f206160008301527f64647265737300000000000000000000000000000000000000000000000000006020830152604082019050919050565b6000613477601c8361418b565b91507f4552433732313a20746f6b656e20616c7265616479206d696e746564000000006000830152602082019050919050565b60006134b760248361418b565b91507f4552433732313a207472616e7366657220746f20746865207a65726f2061646460008301527f72657373000000000000000000000000000000000000000000000000000000006020830152604082019050919050565b600061351d60198361418b565b91507f4552433732313a20617070726f766520746f2063616c6c6572000000000000006000830152602082019050919050565b600061355d60108361418b565b91507f4e6f7420656e6f756768207072696365000000000000000000000000000000006000830152602082019050919050565b600061359d60158361418b565b91507f43616d706169676e206f7574206f6620746f6b656e00000000000000000000006000830152602082019050919050565b60006135dd602c8361418b565b91507f4552433732313a206f70657261746f7220717565727920666f72206e6f6e657860008301527f697374656e7420746f6b656e00000000000000000000000000000000000000006020830152604082019050919050565b600061364360208361418b565b91507f43616d706169676e2068617320616c7265616479206265656e206163746976656000830152602082019050919050565b600061368360388361418b565b91507f4552433732313a20617070726f76652063616c6c6572206973206e6f74206f7760008301527f6e6572206e6f7220617070726f76656420666f7220616c6c00000000000000006020830152604082019050919050565b60006136e9602a8361418b565b91507f4552433732313a2062616c616e636520717565727920666f7220746865207a6560008301527f726f2061646472657373000000000000000000000000000000000000000000006020830152604082019050919050565b600061374f60298361418b565b91507f4552433732313a206f776e657220717565727920666f72206e6f6e657869737460008301527f656e7420746f6b656e00000000000000000000000000000000000000000000006020830152604082019050919050565b60006137b5602e8361418b565b91507f45524337323155524953746f726167653a2055524920736574206f66206e6f6e60008301527f6578697374656e7420746f6b656e0000000000000000000000000000000000006020830152604082019050919050565b600061381b60208361418b565b91507f4552433732313a206d696e7420746f20746865207a65726f20616464726573736000830152602082019050919050565b600061385b60318361418b565b91507f45524337323155524953746f726167653a2055524920717565727920666f722060008301527f6e6f6e6578697374656e7420746f6b656e0000000000000000000000000000006020830152604082019050919050565b60006138c1602c8361418b565b91507f4552433732313a20617070726f76656420717565727920666f72206e6f6e657860008301527f697374656e7420746f6b656e00000000000000000000000000000000000000006020830152604082019050919050565b600061392760208361418b565b91507f4f776e61626c653a2063616c6c6572206973206e6f7420746865206f776e65726000830152602082019050919050565b600061396760298361418b565b91507f4552433732313a207472616e73666572206f6620746f6b656e2074686174206960008301527f73206e6f74206f776e00000000000000000000000000000000000000000000006020830152604082019050919050565b60006139cd602f8361418b565b91507f4552433732314d657461646174613a2055524920717565727920666f72206e6f60008301527f6e6578697374656e7420746f6b656e00000000000000000000000000000000006020830152604082019050919050565b6000613a3360208361418b565b91507f43616d706169676e2068617320616c7265616479206265656e20636c6f7365646000830152602082019050919050565b6000613a7360198361418b565b91507f546f6b656e55524920697320616c72656164792074616b656e000000000000006000830152602082019050919050565b6000613ab360218361418b565b91507f4552433732313a20617070726f76616c20746f2063757272656e74206f776e6560008301527f72000000000000000000000000000000000000000000000000000000000000006020830152604082019050919050565b6000613b1960318361418b565b91507f4552433732313a207472616e736665722063616c6c6572206973206e6f74206f60008301527f776e6572206e6f7220617070726f7665640000000000000000000000000000006020830152604082019050919050565b6000613b7f601a8361418b565b91507f43616d706169676e206973206e6f7420636c6f736564207965740000000000006000830152602082019050919050565b6000613bbf602e8361418b565b91507f54686973206164647265737320616c7265616479206170706c69656420666f7260008301527f20746869732063616d706169676e0000000000000000000000000000000000006020830152604082019050919050565b613c21816142cc565b82525050565b6000613c3382846132ed565b915081905092915050565b6000613c4a82856132ed565b9150613c5682846132ed565b91508190509392505050565b6000602082019050613c77600083018461325d565b92915050565b6000604082019050613c92600083018561324e565b613c9f6020830184613c18565b9392505050565b6000608082019050613cbb600083018761325d565b613cc8602083018661325d565b613cd56040830185613c18565b8181036060830152613ce7818461327b565b905095945050505050565b6000604082019050613d07600083018561325d565b613d146020830184613c18565b9392505050565b6000602082019050613d30600083018461326c565b92915050565b60006020820190508181036000830152613d5081846132b4565b905092915050565b60006020820190508181036000830152613d718161331e565b9050919050565b60006020820190508181036000830152613d918161335e565b9050919050565b60006020820190508181036000830152613db1816133c4565b9050919050565b60006020820190508181036000830152613dd181613404565b9050919050565b60006020820190508181036000830152613df18161346a565b9050919050565b60006020820190508181036000830152613e11816134aa565b9050919050565b60006020820190508181036000830152613e3181613510565b9050919050565b60006020820190508181036000830152613e5181613550565b9050919050565b60006020820190508181036000830152613e7181613590565b9050919050565b60006020820190508181036000830152613e91816135d0565b9050919050565b60006020820190508181036000830152613eb181613636565b9050919050565b60006020820190508181036000830152613ed181613676565b9050919050565b60006020820190508181036000830152613ef1816136dc565b9050919050565b60006020820190508181036000830152613f1181613742565b9050919050565b60006020820190508181036000830152613f31816137a8565b9050919050565b60006020820190508181036000830152613f518161380e565b9050919050565b60006020820190508181036000830152613f718161384e565b9050919050565b60006020820190508181036000830152613f91816138b4565b9050919050565b60006020820190508181036000830152613fb18161391a565b9050919050565b60006020820190508181036000830152613fd18161395a565b9050919050565b60006020820190508181036000830152613ff1816139c0565b9050919050565b6000602082019050818103600083015261401181613a26565b9050919050565b6000602082019050818103600083015261403181613a66565b9050919050565b6000602082019050818103600083015261405181613aa6565b9050919050565b6000602082019050818103600083015261407181613b0c565b9050919050565b6000602082019050818103600083015261409181613b72565b9050919050565b600060208201905081810360008301526140b181613bb2565b9050919050565b60006020820190506140cd6000830184613c18565b92915050565b6000604051905081810181811067ffffffffffffffff821117156140fa576140f9614487565b5b8060405250919050565b600067ffffffffffffffff82111561411f5761411e614487565b5b601f19601f8301169050602081019050919050565b600067ffffffffffffffff82111561414f5761414e614487565b5b601f19601f8301169050602081019050919050565b600081519050919050565b600081519050919050565b600082825260208201905092915050565b600082825260208201905092915050565b600081905092915050565b60006141b2826142cc565b91506141bd836142cc565b9250827fffffffffffffffffffffffffffffffffffffffffffffffffffffffffffffffff038211156141f2576141f16143fa565b5b828201905092915050565b6000614208826142cc565b9150614213836142cc565b92508261422357614222614429565b5b828204905092915050565b6000614239826142cc565b9150614244836142cc565b925082821015614257576142566143fa565b5b828203905092915050565b600061426d826142ac565b9050919050565b60008115159050919050565b60007fffffffff0000000000000000000000000000000000000000000000000000000082169050919050565b600073ffffffffffffffffffffffffffffffffffffffff82169050919050565b6000819050919050565b60006142e1826142e8565b9050919050565b60006142f3826142fa565b9050919050565b6000614305826142ac565b9050919050565b82818337600083830152505050565b60005b8381101561433957808201518184015260208101905061431e565b83811115614348576000848401525b50505050565b6000600282049050600182168061436657607f821691505b6020821081141561437a57614379614458565b5b50919050565b600061438b826142cc565b91507fffffffffffffffffffffffffffffffffffffffffffffffffffffffffffffffff8214156143be576143bd6143fa565b5b600182019050919050565b60006143d4826142cc565b91506143df836142cc565b9250826143ef576143ee614429565b5b828206905092915050565b7f4e487b7100000000000000000000000000000000000000000000000000000000600052601160045260246000fd5b7f4e487b7100000000000000000000000000000000000000000000000000000000600052601260045260246000fd5b7f4e487b7100000000000000000000000000000000000000000000000000000000600052602260045260246000fd5b7f4e487b7100000000000000000000000000000000000000000000000000000000600052604160045260246000fd5b6000601f19601f8301169050919050565b6144d081614262565b81146144db57600080fd5b50565b6144e781614274565b81146144f257600080fd5b50565b6144fe81614280565b811461450957600080fd5b50565b614515816142cc565b811461452057600080fd5b5056fea264697066735822122025f1c274e609fc303e7fafbcfe01f1bff9acd69e673ca0ebb6c7e4a28c70b50464736f6c63430008000033",
  "immutableReferences": {},
  "source": "// SPDX-License-Identifier: MIT\npragma solidity ^0.8.0;\n\nimport \"@openzeppelin/contracts/access/Ownable.sol\";\nimport \"@openzeppelin/contracts/security/ReentrancyGuard.sol\";\nimport \"@openzeppelin/contracts/token/ERC721/extensions/ERC721URIStorage.sol\";\ncontract CampaignNFT is Ownable, ERC721URIStorage{\n    uint public current;\n    uint public price;\n    uint public slot;\n    bool public ended;\n    uint public tokenId;\n\n    struct Donor {\n        address wallet;\n        uint amount;\n    }\n    struct Donee {\n        address wallet;\n        uint amount;\n    }\n    uint public donorsCount;\n    uint public doneesCount;\n    mapping(uint => Donee) public donees;\n    mapping(uint => Donor) public donors;\n\n    mapping(address => uint) public donorToId;\n    mapping(address => uint) public doneeToId;\n    mapping(string => bool) public usedURI;\n\n    event minted(address donor);\n    event donated(address donor);\n    event distributed(address donee, uint amount);\n\n    \n\n    constructor (address _creator, string memory _name,uint _slot, uint _price) ERC721(_name, _name) Ownable() {\n        slot = _slot;\n        price = _price;\n        current = 0;\n        ended = false;\n        transferOwnership(_creator);\n    }\n    \n\n\n    function isDonor() external returns(bool) {\n        return (donorToId[msg.sender]!=0);\n    }\n    function isDonee() external returns(bool) {\n        return (doneeToId[msg.sender]!=0);\n    }\n\n    function mint(string memory _tokenURI)  payable external{\n        require(msg.value >= price, \"Not enough price\");\n        require(ended==false, \"Campaign is closed\");\n        require(slot > 0, \"Campaign has no nft slot\");\n        require(usedURI[_tokenURI]==false, \"TokenURI is already taken\");\n        \n        current += msg.value;\n        \n        if(donorToId[msg.sender]!=0){\n            donors[donorToId[msg.sender]].amount += msg.value;\n        } else{\n            donorsCount += 1;\n            donors[donorsCount] = Donor(msg.sender, msg.value);\n            donorToId[msg.sender] = donorsCount;    \n        }\n\n\n        _safeMint(msg.sender, tokenId);\n        _setTokenURI(tokenId, _tokenURI);\n        tokenId += 1;\n        slot -= 1;\n        emit minted(msg.sender);\n\n    }\n    function donate() payable external {\n        require(msg.value >= price, \"Not enough price\");\n        require(ended==false, \"Campaign is closed\");\n        \n        current += msg.value;\n\n   \n        if(donorToId[msg.sender]!=0){\n            donors[donorToId[msg.sender]].amount += msg.value;\n        } else{\n            donorsCount += 1;\n            donors[donorsCount] = Donor(msg.sender, msg.value);\n            donorToId[msg.sender] = donorsCount;    \n        }\n\n        emit donated(msg.sender);\n    }\n    function applyToDonee() external {\n        require(ended==false, \"Campaign is closed\");\n        require(doneeToId[msg.sender]==0, \"This address already applied for this campaign\");\n        \n        doneesCount += 1;\n        donees[doneesCount] = Donee(msg.sender, 0);\n        doneeToId[msg.sender] = doneesCount;\n    }\n    function distribute(uint _doneeId, uint _amount) public onlyOwner {\n        require(ended, \"Campaign is not closed yet\");\n        require(_amount <= current, \"Campaign out of token\");\n        \n        address payable doneeAddress = payable(donees[_doneeId].wallet);\n\n        doneeAddress.transfer(_amount);\n\n        current -= _amount;\n        donees[_doneeId].amount += _amount;\n\n        emit distributed(doneeAddress, _amount);\n    }\n    \n    function end() public onlyOwner {\n        require(ended==false, \"Campaign has already been closed\");\n        ended = true; \n    }\n    function open() public onlyOwner {\n        require(ended==true, \"Campaign has already been active\");\n        ended = false;\n    }\n}\n\n",
  "sourcePath": "/home/khangt1k25/Code/donationproject/truffle/contracts/CampaignNFT.sol",
  "compiler": {
    "name": "solc",
    "version": "0.8.0+commit.c7dfd78e.Emscripten.clang"
  },
  "schemaVersion": "3.4.3",
  "updatedAt": "2022-01-01T14:10:27.814Z",
  "devdoc": {
    "kind": "dev",
    "methods": {
      "approve(address,uint256)": {
        "details": "See {IERC721-approve}."
      },
      "balanceOf(address)": {
        "details": "See {IERC721-balanceOf}."
      },
      "getApproved(uint256)": {
        "details": "See {IERC721-getApproved}."
      },
      "isApprovedForAll(address,address)": {
        "details": "See {IERC721-isApprovedForAll}."
      },
      "name()": {
        "details": "See {IERC721Metadata-name}."
      },
      "owner()": {
        "details": "Returns the address of the current owner."
      },
      "ownerOf(uint256)": {
        "details": "See {IERC721-ownerOf}."
      },
      "renounceOwnership()": {
        "details": "Leaves the contract without owner. It will not be possible to call `onlyOwner` functions anymore. Can only be called by the current owner. NOTE: Renouncing ownership will leave the contract without an owner, thereby removing any functionality that is only available to the owner."
      },
      "safeTransferFrom(address,address,uint256)": {
        "details": "See {IERC721-safeTransferFrom}."
      },
      "safeTransferFrom(address,address,uint256,bytes)": {
        "details": "See {IERC721-safeTransferFrom}."
      },
      "setApprovalForAll(address,bool)": {
        "details": "See {IERC721-setApprovalForAll}."
      },
      "supportsInterface(bytes4)": {
        "details": "See {IERC165-supportsInterface}."
      },
      "symbol()": {
        "details": "See {IERC721Metadata-symbol}."
      },
      "tokenURI(uint256)": {
        "details": "See {IERC721Metadata-tokenURI}."
      },
      "transferFrom(address,address,uint256)": {
        "details": "See {IERC721-transferFrom}."
      },
      "transferOwnership(address)": {
        "details": "Transfers ownership of the contract to a new account (`newOwner`). Can only be called by the current owner."
      }
    },
    "version": 1
  },
  "userdoc": {
    "kind": "user",
    "methods": {},
    "version": 1
  }
}