{
  "contractName": "Store",
  "abi": [
    {
      "anonymous": false,
      "inputs": [
        {
          "indexed": true,
          "internalType": "address",
          "name": "previousOwner",
          "type": "address"
        },
        {
          "indexed": true,
          "internalType": "address",
          "name": "newOwner",
          "type": "address"
        }
      ],
      "name": "OwnershipTransferred",
      "type": "event"
    },
    {
      "anonymous": false,
      "inputs": [
        {
          "indexed": false,
          "internalType": "uint256",
          "name": "_campaignId",
          "type": "uint256"
        },
        {
          "indexed": false,
          "internalType": "address",
          "name": "_creator",
          "type": "address"
        },
        {
          "indexed": false,
          "internalType": "address",
          "name": "_wallet",
          "type": "address"
        },
        {
          "indexed": false,
          "internalType": "address",
          "name": "_token",
          "type": "address"
        }
      ],
      "name": "campaignCreated",
      "type": "event"
    },
    {
      "inputs": [],
      "name": "_campaign_count",
      "outputs": [
        {
          "internalType": "uint256",
          "name": "",
          "type": "uint256"
        }
      ],
      "stateMutability": "view",
      "type": "function",
      "constant": true
    },
    {
      "inputs": [
        {
          "internalType": "uint256",
          "name": "",
          "type": "uint256"
        }
      ],
      "name": "campaigns",
      "outputs": [
        {
          "internalType": "address",
          "name": "creator",
          "type": "address"
        },
        {
          "internalType": "address",
          "name": "wallet",
          "type": "address"
        },
        {
          "internalType": "string",
          "name": "name",
          "type": "string"
        },
        {
          "internalType": "uint256",
          "name": "id",
          "type": "uint256"
        }
      ],
      "stateMutability": "view",
      "type": "function",
      "constant": true
    },
    {
      "inputs": [],
      "name": "owner",
      "outputs": [
        {
          "internalType": "address",
          "name": "",
          "type": "address"
        }
      ],
      "stateMutability": "view",
      "type": "function",
      "constant": true
    },
    {
      "inputs": [],
      "name": "renounceOwnership",
      "outputs": [],
      "stateMutability": "nonpayable",
      "type": "function"
    },
    {
      "inputs": [
        {
          "internalType": "address",
          "name": "newOwner",
          "type": "address"
        }
      ],
      "name": "transferOwnership",
      "outputs": [],
      "stateMutability": "nonpayable",
      "type": "function"
    },
    {
      "inputs": [
        {
          "internalType": "address",
          "name": "",
          "type": "address"
        }
      ],
      "name": "whitelist",
      "outputs": [
        {
          "internalType": "bool",
          "name": "",
          "type": "bool"
        }
      ],
      "stateMutability": "view",
      "type": "function",
      "constant": true
    },
    {
      "inputs": [
        {
          "internalType": "address",
          "name": "_user",
          "type": "address"
        }
      ],
      "name": "addWhitelister",
      "outputs": [],
      "stateMutability": "nonpayable",
      "type": "function"
    },
    {
      "inputs": [
        {
          "internalType": "address",
          "name": "_user",
          "type": "address"
        }
      ],
      "name": "removeWhitelister",
      "outputs": [],
      "stateMutability": "nonpayable",
      "type": "function"
    },
    {
      "inputs": [
        {
          "internalType": "address",
          "name": "_user",
          "type": "address"
        }
      ],
      "name": "isWhitelister",
      "outputs": [
        {
          "internalType": "bool",
          "name": "",
          "type": "bool"
        }
      ],
      "stateMutability": "view",
      "type": "function",
      "constant": true
    },
    {
      "inputs": [
        {
          "internalType": "string",
          "name": "_name",
          "type": "string"
        },
        {
          "internalType": "uint256",
          "name": "_slot",
          "type": "uint256"
        },
        {
          "internalType": "uint256",
          "name": "_price",
          "type": "uint256"
        }
      ],
      "name": "createCampaign",
      "outputs": [],
      "stateMutability": "nonpayable",
      "type": "function"
    }
  ],
  "bytecode": "0x608060405234801561001057600080fd5b5061002d61002261003960201b60201c565b61004160201b60201c565b60018081905550610105565b600033905090565b60008060009054906101000a900473ffffffffffffffffffffffffffffffffffffffff169050816000806101000a81548173ffffffffffffffffffffffffffffffffffffffff021916908373ffffffffffffffffffffffffffffffffffffffff1602179055508173ffffffffffffffffffffffffffffffffffffffff168173ffffffffffffffffffffffffffffffffffffffff167f8be0079c531659141344cd1fd0a4f28419497f9722a3daafe3b4186f6b6457e060405160405180910390a35050565b615e84806101146000396000f3fe60806040523480156200001157600080fd5b5060043610620000ac5760003560e01c806382c3f79c116200006f57806382c3f79c146200016e5780638da5cb5b146200018e5780639b19251a14620001b0578063eaf9144a14620001e6578063f2fde38b146200020657620000ac565b8063141961bc14620000b15780633020580b14620000ea5780634c5b8880146200010a578063715018a6146200012c5780637d0c269f1462000138575b600080fd5b620000cf6004803603810190620000c9919062000bfa565b62000226565b604051620000e1949392919062000dc9565b60405180910390f35b62000108600480360381019062000102919062000b8b565b62000326565b005b620001146200053f565b60405162000123919062000ef4565b60405180910390f35b6200013662000545565b005b62000156600480360381019062000150919062000b5f565b620005d6565b60405162000165919062000e71565b60405180910390f35b6200018c600480360381019062000186919062000b5f565b6200062c565b005b620001986200070a565b604051620001a7919062000dac565b60405180910390f35b620001ce6004803603810190620001c8919062000b5f565b62000733565b604051620001dd919062000e71565b60405180910390f35b620002046004803603810190620001fe919062000b5f565b62000753565b005b6200022460048036038101906200021e919062000b5f565b62000831565b005b60046020528060005260406000206000915090508060000160009054906101000a900473ffffffffffffffffffffffffffffffffffffffff16908060010160009054906101000a900473ffffffffffffffffffffffffffffffffffffffff1690806002018054620002979062001080565b80601f0160208091040260200160405190810160405280929190818152602001828054620002c59062001080565b8015620003165780601f10620002ea5761010080835404028352916020019162000316565b820191906000526020600020905b815481529060010190602001808311620002f857829003601f168201915b5050505050908060030154905084565b60011515600360003373ffffffffffffffffffffffffffffffffffffffff1673ffffffffffffffffffffffffffffffffffffffff16815260200190815260200160002060009054906101000a900460ff16151514620003bc576040517f08c379a0000000000000000000000000000000000000000000000000000000008152600401620003b39062000ed2565b60405180910390fd5b600033848484604051620003d09062000a01565b620003df949392919062000e1d565b604051809103906000f080158015620003fc573d6000803e3d6000fd5b50905060405180608001604052803373ffffffffffffffffffffffffffffffffffffffff1681526020018273ffffffffffffffffffffffffffffffffffffffff16815260200185815260200160025481525060046000600254815260200190815260200160002060008201518160000160006101000a81548173ffffffffffffffffffffffffffffffffffffffff021916908373ffffffffffffffffffffffffffffffffffffffff16021790555060208201518160010160006101000a81548173ffffffffffffffffffffffffffffffffffffffff021916908373ffffffffffffffffffffffffffffffffffffffff16021790555060408201518160020190805190602001906200050f92919062000a0f565b506060820151816003015590505060016002600082825462000532919062000f94565b9250508190555050505050565b60025481565b6200054f62000935565b73ffffffffffffffffffffffffffffffffffffffff166200056f6200070a565b73ffffffffffffffffffffffffffffffffffffffff1614620005c8576040517f08c379a0000000000000000000000000000000000000000000000000000000008152600401620005bf9062000eb0565b60405180910390fd5b620005d460006200093d565b565b6000600360008373ffffffffffffffffffffffffffffffffffffffff1673ffffffffffffffffffffffffffffffffffffffff16815260200190815260200160002060009054906101000a900460ff169050919050565b6200063662000935565b73ffffffffffffffffffffffffffffffffffffffff16620006566200070a565b73ffffffffffffffffffffffffffffffffffffffff1614620006af576040517f08c379a0000000000000000000000000000000000000000000000000000000008152600401620006a69062000eb0565b60405180910390fd5b6000600360008373ffffffffffffffffffffffffffffffffffffffff1673ffffffffffffffffffffffffffffffffffffffff16815260200190815260200160002060006101000a81548160ff02191690831515021790555050565b60008060009054906101000a900473ffffffffffffffffffffffffffffffffffffffff16905090565b60036020528060005260406000206000915054906101000a900460ff1681565b6200075d62000935565b73ffffffffffffffffffffffffffffffffffffffff166200077d6200070a565b73ffffffffffffffffffffffffffffffffffffffff1614620007d6576040517f08c379a0000000000000000000000000000000000000000000000000000000008152600401620007cd9062000eb0565b60405180910390fd5b6001600360008373ffffffffffffffffffffffffffffffffffffffff1673ffffffffffffffffffffffffffffffffffffffff16815260200190815260200160002060006101000a81548160ff02191690831515021790555050565b6200083b62000935565b73ffffffffffffffffffffffffffffffffffffffff166200085b6200070a565b73ffffffffffffffffffffffffffffffffffffffff1614620008b4576040517f08c379a0000000000000000000000000000000000000000000000000000000008152600401620008ab9062000eb0565b60405180910390fd5b600073ffffffffffffffffffffffffffffffffffffffff168173ffffffffffffffffffffffffffffffffffffffff16141562000927576040517f08c379a00000000000000000000000000000000000000000000000000000000081526004016200091e9062000e8e565b60405180910390fd5b62000932816200093d565b50565b600033905090565b60008060009054906101000a900473ffffffffffffffffffffffffffffffffffffffff169050816000806101000a81548173ffffffffffffffffffffffffffffffffffffffff021916908373ffffffffffffffffffffffffffffffffffffffff1602179055508173ffffffffffffffffffffffffffffffffffffffff168173ffffffffffffffffffffffffffffffffffffffff167f8be0079c531659141344cd1fd0a4f28419497f9722a3daafe3b4186f6b6457e060405160405180910390a35050565b614cc6806200118983390190565b82805462000a1d9062001080565b90600052602060002090601f01602090048101928262000a41576000855562000a8d565b82601f1062000a5c57805160ff191683800117855562000a8d565b8280016001018555821562000a8d579182015b8281111562000a8c57825182559160200191906001019062000a6f565b5b50905062000a9c919062000aa0565b5090565b5b8082111562000abb57600081600090555060010162000aa1565b5090565b600062000ad662000ad08462000f45565b62000f11565b90508281526020810184848401111562000aef57600080fd5b62000afc8482856200103b565b509392505050565b60008135905062000b158162001154565b92915050565b600082601f83011262000b2d57600080fd5b813562000b3f84826020860162000abf565b91505092915050565b60008135905062000b59816200116e565b92915050565b60006020828403121562000b7257600080fd5b600062000b828482850162000b04565b91505092915050565b60008060006060848603121562000ba157600080fd5b600084013567ffffffffffffffff81111562000bbc57600080fd5b62000bca8682870162000b1b565b935050602062000bdd8682870162000b48565b925050604062000bf08682870162000b48565b9150509250925092565b60006020828403121562000c0d57600080fd5b600062000c1d8482850162000b48565b91505092915050565b62000c318162000ff1565b82525050565b62000c428162001005565b82525050565b600062000c558262000f78565b62000c61818562000f83565b935062000c738185602086016200104a565b62000c7e8162001143565b840191505092915050565b600062000c9860268362000f83565b91507f4f776e61626c653a206e6577206f776e657220697320746865207a65726f206160008301527f64647265737300000000000000000000000000000000000000000000000000006020830152604082019050919050565b600062000d0060208362000f83565b91507f4f776e61626c653a2063616c6c6572206973206e6f7420746865206f776e65726000830152602082019050919050565b600062000d4260278362000f83565b91507f4f776e61626c653a2063616c6c6572206973206e6f7420696e2074686520776860008301527f6974656c697374000000000000000000000000000000000000000000000000006020830152604082019050919050565b62000da68162001031565b82525050565b600060208201905062000dc3600083018462000c26565b92915050565b600060808201905062000de0600083018762000c26565b62000def602083018662000c26565b818103604083015262000e03818562000c48565b905062000e14606083018462000d9b565b95945050505050565b600060808201905062000e34600083018762000c26565b818103602083015262000e48818662000c48565b905062000e59604083018562000d9b565b62000e68606083018462000d9b565b95945050505050565b600060208201905062000e88600083018462000c37565b92915050565b6000602082019050818103600083015262000ea98162000c89565b9050919050565b6000602082019050818103600083015262000ecb8162000cf1565b9050919050565b6000602082019050818103600083015262000eed8162000d33565b9050919050565b600060208201905062000f0b600083018462000d9b565b92915050565b6000604051905081810181811067ffffffffffffffff8211171562000f3b5762000f3a62001114565b5b8060405250919050565b600067ffffffffffffffff82111562000f635762000f6262001114565b5b601f19601f8301169050602081019050919050565b600081519050919050565b600082825260208201905092915050565b600062000fa18262001031565b915062000fae8362001031565b9250827fffffffffffffffffffffffffffffffffffffffffffffffffffffffffffffffff0382111562000fe65762000fe5620010b6565b5b828201905092915050565b600062000ffe8262001011565b9050919050565b60008115159050919050565b600073ffffffffffffffffffffffffffffffffffffffff82169050919050565b6000819050919050565b82818337600083830152505050565b60005b838110156200106a5780820151818401526020810190506200104d565b838111156200107a576000848401525b50505050565b600060028204905060018216806200109957607f821691505b60208210811415620010b057620010af620010e5565b5b50919050565b7f4e487b7100000000000000000000000000000000000000000000000000000000600052601160045260246000fd5b7f4e487b7100000000000000000000000000000000000000000000000000000000600052602260045260246000fd5b7f4e487b7100000000000000000000000000000000000000000000000000000000600052604160045260246000fd5b6000601f19601f8301169050919050565b6200115f8162000ff1565b81146200116b57600080fd5b50565b620011798162001031565b81146200118557600080fd5b5056fe60806040523480156200001157600080fd5b5060405162004cc638038062004cc6833981810160405281019062000037919062000434565b8283620000596200004d620000d960201b60201c565b620000e160201b60201c565b816001908051906020019062000071929190620002e4565b5080600290805190602001906200008a929190620002e4565b50505081600a819055508060098190555060006008819055506000600b60006101000a81548160ff021916908315150217905550620000cf84620001a560201b60201c565b505050506200075b565b600033905090565b60008060009054906101000a900473ffffffffffffffffffffffffffffffffffffffff169050816000806101000a81548173ffffffffffffffffffffffffffffffffffffffff021916908373ffffffffffffffffffffffffffffffffffffffff1602179055508173ffffffffffffffffffffffffffffffffffffffff168173ffffffffffffffffffffffffffffffffffffffff167f8be0079c531659141344cd1fd0a4f28419497f9722a3daafe3b4186f6b6457e060405160405180910390a35050565b620001b5620000d960201b60201c565b73ffffffffffffffffffffffffffffffffffffffff16620001db620002bb60201b60201c565b73ffffffffffffffffffffffffffffffffffffffff161462000234576040517f08c379a00000000000000000000000000000000000000000000000000000000081526004016200022b9062000585565b60405180910390fd5b600073ffffffffffffffffffffffffffffffffffffffff168173ffffffffffffffffffffffffffffffffffffffff161415620002a7576040517f08c379a00000000000000000000000000000000000000000000000000000000081526004016200029e9062000563565b60405180910390fd5b620002b881620000e160201b60201c565b50565b60008060009054906101000a900473ffffffffffffffffffffffffffffffffffffffff16905090565b828054620002f29062000693565b90600052602060002090601f01602090048101928262000316576000855562000362565b82601f106200033157805160ff191683800117855562000362565b8280016001018555821562000362579182015b828111156200036157825182559160200191906001019062000344565b5b50905062000371919062000375565b5090565b5b808211156200039057600081600090555060010162000376565b5090565b6000620003ab620003a584620005db565b620005a7565b905082815260208101848484011115620003c457600080fd5b620003d18482856200065d565b509392505050565b600081519050620003ea8162000727565b92915050565b600082601f8301126200040257600080fd5b81516200041484826020860162000394565b91505092915050565b6000815190506200042e8162000741565b92915050565b600080600080608085870312156200044b57600080fd5b60006200045b87828801620003d9565b945050602085015167ffffffffffffffff8111156200047957600080fd5b6200048787828801620003f0565b93505060406200049a878288016200041d565b9250506060620004ad878288016200041d565b91505092959194509250565b6000620004c86026836200060e565b91507f4f776e61626c653a206e6577206f776e657220697320746865207a65726f206160008301527f64647265737300000000000000000000000000000000000000000000000000006020830152604082019050919050565b6000620005306020836200060e565b91507f4f776e61626c653a2063616c6c6572206973206e6f7420746865206f776e65726000830152602082019050919050565b600060208201905081810360008301526200057e81620004b9565b9050919050565b60006020820190508181036000830152620005a08162000521565b9050919050565b6000604051905081810181811067ffffffffffffffff82111715620005d157620005d0620006f8565b5b8060405250919050565b600067ffffffffffffffff821115620005f957620005f8620006f8565b5b601f19601f8301169050602081019050919050565b600082825260208201905092915050565b60006200062c8262000633565b9050919050565b600073ffffffffffffffffffffffffffffffffffffffff82169050919050565b6000819050919050565b60005b838110156200067d57808201518184015260208101905062000660565b838111156200068d576000848401525b50505050565b60006002820490506001821680620006ac57607f821691505b60208210811415620006c357620006c2620006c9565b5b50919050565b7f4e487b7100000000000000000000000000000000000000000000000000000000600052602260045260246000fd5b7f4e487b7100000000000000000000000000000000000000000000000000000000600052604160045260246000fd5b62000732816200061f565b81146200073e57600080fd5b50565b6200074c8162000653565b81146200075857600080fd5b50565b61455b806200076b6000396000f3fe60806040526004361061020f5760003560e01c806370a0823111610118578063b88d4fde116100a0578063e985e9c51161006f578063e985e9c5146107bc578063ed88c68e146107f9578063efbe1c1c14610803578063f2fde38b1461081a578063fcfff16f146108435761020f565b8063b88d4fde146106fd578063c87b56dd14610726578063d6c0a3ef14610763578063d85d3d27146107a05761020f565b806395d89b41116100e757806395d89b41146106285780639fa6a6e3146106535780639ff534dc1461067e578063a035b1fe146106a9578063a22cb465146106d45761020f565b806370a0823114610580578063715018a6146105bd5780637625391a146105d45780638da5cb5b146105fd5761020f565b806322c8077f1161019b57806342842e0e1161016a57806342842e0e1461048757806349a5fdcd146104b05780634abfa163146104c75780636352211e146105055780636e4d2bec146105425761020f565b806322c8077f146103dd57806323b872dd146104085780632d7860221461043157806330c26c2f1461045c5761020f565b80630a40a2b1116101e25780630a40a2b1146102e25780630d8792601461031f57806312fa6feb1461035c57806317d70f7c146103875780631a88bc66146103b25761020f565b806301ffc9a71461021457806306fdde0314610251578063081812fc1461027c578063095ea7b3146102b9575b600080fd5b34801561022057600080fd5b5061023b60048036038101906102369190613158565b61085a565b6040516102489190613d1d565b60405180910390f35b34801561025d57600080fd5b5061026661093c565b6040516102739190613d38565b60405180910390f35b34801561028857600080fd5b506102a3600480360381019061029e91906131eb565b6109ce565b6040516102b09190613c64565b60405180910390f35b3480156102c557600080fd5b506102e060048036038101906102db919061311c565b610a53565b005b3480156102ee57600080fd5b50610309600480360381019061030491906131aa565b610b6b565b6040516103169190613d1d565b60405180910390f35b34801561032b57600080fd5b5061034660048036038101906103419190612fb1565b610ba1565b60405161035391906140ba565b60405180910390f35b34801561036857600080fd5b50610371610bb9565b60405161037e9190613d1d565b60405180910390f35b34801561039357600080fd5b5061039c610bcc565b6040516103a991906140ba565b60405180910390f35b3480156103be57600080fd5b506103c7610bd2565b6040516103d491906140ba565b60405180910390f35b3480156103e957600080fd5b506103f2610bd8565b6040516103ff9190613d1d565b60405180910390f35b34801561041457600080fd5b5061042f600480360381019061042a9190613016565b610c22565b005b34801561043d57600080fd5b50610446610c82565b60405161045391906140ba565b60405180910390f35b34801561046857600080fd5b50610471610c88565b60405161047e9190613d1d565b60405180910390f35b34801561049357600080fd5b506104ae60048036038101906104a99190613016565b610cd2565b005b3480156104bc57600080fd5b506104c5610cf2565b005b3480156104d357600080fd5b506104ee60048036038101906104e991906131eb565b610ec1565b6040516104fc929190613cf4565b60405180910390f35b34801561051157600080fd5b5061052c600480360381019061052791906131eb565b610f05565b6040516105399190613c64565b60405180910390f35b34801561054e57600080fd5b50610569600480360381019061056491906131eb565b610fb7565b604051610577929190613cf4565b60405180910390f35b34801561058c57600080fd5b506105a760048036038101906105a29190612fb1565b610ffb565b6040516105b491906140ba565b60405180910390f35b3480156105c957600080fd5b506105d26110b3565b005b3480156105e057600080fd5b506105fb60048036038101906105f69190613214565b61113b565b005b34801561060957600080fd5b50610612611351565b60405161061f9190613c64565b60405180910390f35b34801561063457600080fd5b5061063d61137a565b60405161064a9190613d38565b60405180910390f35b34801561065f57600080fd5b5061066861140c565b60405161067591906140ba565b60405180910390f35b34801561068a57600080fd5b50610693611412565b6040516106a091906140ba565b60405180910390f35b3480156106b557600080fd5b506106be611418565b6040516106cb91906140ba565b60405180910390f35b3480156106e057600080fd5b506106fb60048036038101906106f691906130e0565b61141e565b005b34801561070957600080fd5b50610724600480360381019061071f9190613065565b611434565b005b34801561073257600080fd5b5061074d600480360381019061074891906131eb565b611496565b60405161075a9190613d38565b60405180910390f35b34801561076f57600080fd5b5061078a60048036038101906107859190612fb1565b6115e8565b60405161079791906140ba565b60405180910390f35b6107ba60048036038101906107b591906131aa565b611600565b005b3480156107c857600080fd5b506107e360048036038101906107de9190612fda565b61199e565b6040516107f09190613d1d565b60405180910390f35b610801611a32565b005b34801561080f57600080fd5b50610818611ccc565b005b34801561082657600080fd5b50610841600480360381019061083c9190612fb1565b611dbb565b005b34801561084f57600080fd5b50610858611eb3565b005b60007f80ac58cd000000000000000000000000000000000000000000000000000000007bffffffffffffffffffffffffffffffffffffffffffffffffffffffff1916827bffffffffffffffffffffffffffffffffffffffffffffffffffffffff1916148061092557507f5b5e139f000000000000000000000000000000000000000000000000000000007bffffffffffffffffffffffffffffffffffffffffffffffffffffffff1916827bffffffffffffffffffffffffffffffffffffffffffffffffffffffff1916145b80610935575061093482611fa2565b5b9050919050565b60606001805461094b90614350565b80601f016020809104026020016040519081016040528092919081815260200182805461097790614350565b80156109c45780601f10610999576101008083540402835291602001916109c4565b820191906000526020600020905b8154815290600101906020018083116109a757829003601f168201915b5050505050905090565b60006109d98261200c565b610a18576040517f08c379a0000000000000000000000000000000000000000000000000000000008152600401610a0f90613f7a565b60405180910390fd5b6005600083815260200190815260200160002060009054906101000a900473ffffffffffffffffffffffffffffffffffffffff169050919050565b6000610a5e82610f05565b90508073ffffffffffffffffffffffffffffffffffffffff168373ffffffffffffffffffffffffffffffffffffffff161415610acf576040517f08c379a0000000000000000000000000000000000000000000000000000000008152600401610ac69061403a565b60405180910390fd5b8073ffffffffffffffffffffffffffffffffffffffff16610aee612078565b73ffffffffffffffffffffffffffffffffffffffff161480610b1d5750610b1c81610b17612078565b61199e565b5b610b5c576040517f08c379a0000000000000000000000000000000000000000000000000000000008152600401610b5390613eba565b60405180910390fd5b610b668383612080565b505050565b6013818051602081018201805184825260208301602085012081835280955050505050506000915054906101000a900460ff1681565b60126020528060005260406000206000915090505481565b600b60009054906101000a900460ff1681565b600c5481565b600a5481565b600080601160003373ffffffffffffffffffffffffffffffffffffffff1673ffffffffffffffffffffffffffffffffffffffff168152602001908152602001600020541415905090565b610c33610c2d612078565b82612139565b610c72576040517f08c379a0000000000000000000000000000000000000000000000000000000008152600401610c699061405a565b60405180910390fd5b610c7d838383612217565b505050565b600e5481565b600080601260003373ffffffffffffffffffffffffffffffffffffffff1673ffffffffffffffffffffffffffffffffffffffff168152602001908152602001600020541415905090565b610ced83838360405180602001604052806000815250611434565b505050565b60001515600b60009054906101000a900460ff16151514610d48576040517f08c379a0000000000000000000000000000000000000000000000000000000008152600401610d3f90613d9a565b60405180910390fd5b6000601260003373ffffffffffffffffffffffffffffffffffffffff1673ffffffffffffffffffffffffffffffffffffffff1681526020019081526020016000205414610dca576040517f08c379a0000000000000000000000000000000000000000000000000000000008152600401610dc19061409a565b60405180910390fd5b6001600e6000828254610ddd91906141a9565b9250508190555060405180604001604052803373ffffffffffffffffffffffffffffffffffffffff1681526020016000815250600f6000600e54815260200190815260200160002060008201518160000160006101000a81548173ffffffffffffffffffffffffffffffffffffffff021916908373ffffffffffffffffffffffffffffffffffffffff16021790555060208201518160010155905050600e54601260003373ffffffffffffffffffffffffffffffffffffffff1673ffffffffffffffffffffffffffffffffffffffff16815260200190815260200160002081905550565b60106020528060005260406000206000915090508060000160009054906101000a900473ffffffffffffffffffffffffffffffffffffffff16908060010154905082565b6000806003600084815260200190815260200160002060009054906101000a900473ffffffffffffffffffffffffffffffffffffffff169050600073ffffffffffffffffffffffffffffffffffffffff168173ffffffffffffffffffffffffffffffffffffffff161415610fae576040517f08c379a0000000000000000000000000000000000000000000000000000000008152600401610fa590613efa565b60405180910390fd5b80915050919050565b600f6020528060005260406000206000915090508060000160009054906101000a900473ffffffffffffffffffffffffffffffffffffffff16908060010154905082565b60008073ffffffffffffffffffffffffffffffffffffffff168273ffffffffffffffffffffffffffffffffffffffff16141561106c576040517f08c379a000000000000000000000000000000000000000000000000000000000815260040161106390613eda565b60405180910390fd5b600460008373ffffffffffffffffffffffffffffffffffffffff1673ffffffffffffffffffffffffffffffffffffffff168152602001908152602001600020549050919050565b6110bb612078565b73ffffffffffffffffffffffffffffffffffffffff166110d9611351565b73ffffffffffffffffffffffffffffffffffffffff161461112f576040517f08c379a000000000000000000000000000000000000000000000000000000000815260040161112690613f9a565b60405180910390fd5b6111396000612473565b565b611143612078565b73ffffffffffffffffffffffffffffffffffffffff16611161611351565b73ffffffffffffffffffffffffffffffffffffffff16146111b7576040517f08c379a00000000000000000000000000000000000000000000000000000000081526004016111ae90613f9a565b60405180910390fd5b600b60009054906101000a900460ff16611206576040517f08c379a00000000000000000000000000000000000000000000000000000000081526004016111fd9061407a565b60405180910390fd5b60085481111561124b576040517f08c379a000000000000000000000000000000000000000000000000000000000815260040161124290613e5a565b60405180910390fd5b6000600f600084815260200190815260200160002060000160009054906101000a900473ffffffffffffffffffffffffffffffffffffffff1690508073ffffffffffffffffffffffffffffffffffffffff166108fc839081150290604051600060405180830381858888f193505050501580156112cc573d6000803e3d6000fd5b5081600860008282546112df9190614230565b9250508190555081600f6000858152602001908152602001600020600101600082825461130c91906141a9565b925050819055507f774c33ab58e0ee92b864f81d9310d1b9b002c5941b4f5275a0a95255856f546e8183604051611344929190613c7f565b60405180910390a1505050565b60008060009054906101000a900473ffffffffffffffffffffffffffffffffffffffff16905090565b60606002805461138990614350565b80601f01602080910402602001604051908101604052809291908181526020018280546113b590614350565b80156114025780601f106113d757610100808354040283529160200191611402565b820191906000526020600020905b8154815290600101906020018083116113e557829003601f168201915b5050505050905090565b60085481565b600d5481565b60095481565b611430611429612078565b8383612537565b5050565b61144561143f612078565b83612139565b611484576040517f08c379a000000000000000000000000000000000000000000000000000000000815260040161147b9061405a565b60405180910390fd5b611490848484846126a4565b50505050565b60606114a18261200c565b6114e0576040517f08c379a00000000000000000000000000000000000000000000000000000000081526004016114d790613f5a565b60405180910390fd5b600060076000848152602001908152602001600020805461150090614350565b80601f016020809104026020016040519081016040528092919081815260200182805461152c90614350565b80156115795780601f1061154e57610100808354040283529160200191611579565b820191906000526020600020905b81548152906001019060200180831161155c57829003601f168201915b50505050509050600061158a612700565b90506000815114156115a05781925050506115e3565b6000825111156115d55780826040516020016115bd929190613c40565b604051602081830303815290604052925050506115e3565b6115de84612717565b925050505b919050565b60116020528060005260406000206000915090505481565b600954341015611645576040517f08c379a000000000000000000000000000000000000000000000000000000000815260040161163c90613e3a565b60405180910390fd5b60001515600b60009054906101000a900460ff1615151461169b576040517f08c379a000000000000000000000000000000000000000000000000000000000815260040161169290613d9a565b60405180910390fd5b6000600a54116116e0576040517f08c379a00000000000000000000000000000000000000000000000000000000081526004016116d790613d5a565b60405180910390fd5b600015156013826040516116f49190613c29565b908152602001604051809103902060009054906101000a900460ff16151514611752576040517f08c379a00000000000000000000000000000000000000000000000000000000081526004016117499061401a565b60405180910390fd5b346008600082825461176491906141a9565b925050819055506000601160003373ffffffffffffffffffffffffffffffffffffffff1673ffffffffffffffffffffffffffffffffffffffff1681526020019081526020016000205414611823573460106000601160003373ffffffffffffffffffffffffffffffffffffffff1673ffffffffffffffffffffffffffffffffffffffff168152602001908152602001600020548152602001908152602001600020600101600082825461181791906141a9565b92505081905550611918565b6001600d600082825461183691906141a9565b9250508190555060405180604001604052803373ffffffffffffffffffffffffffffffffffffffff1681526020013481525060106000600d54815260200190815260200160002060008201518160000160006101000a81548173ffffffffffffffffffffffffffffffffffffffff021916908373ffffffffffffffffffffffffffffffffffffffff16021790555060208201518160010155905050600d54601160003373ffffffffffffffffffffffffffffffffffffffff1673ffffffffffffffffffffffffffffffffffffffff168152602001908152602001600020819055505b61192433600c546127be565b611930600c54826127dc565b6001600c600082825461194391906141a9565b925050819055506001600a600082825461195d9190614230565b925050819055507f1e7269c5e216aef80eb002ee0e06475f7f15cded97ccfed2584a614250688d52336040516119939190613c64565b60405180910390a150565b6000600660008473ffffffffffffffffffffffffffffffffffffffff1673ffffffffffffffffffffffffffffffffffffffff16815260200190815260200160002060008373ffffffffffffffffffffffffffffffffffffffff1673ffffffffffffffffffffffffffffffffffffffff16815260200190815260200160002060009054906101000a900460ff16905092915050565b600954341015611a77576040517f08c379a0000000000000000000000000000000000000000000000000000000008152600401611a6e90613e3a565b60405180910390fd5b60001515600b60009054906101000a900460ff16151514611acd576040517f08c379a0000000000000000000000000000000000000000000000000000000008152600401611ac490613d9a565b60405180910390fd5b3460086000828254611adf91906141a9565b925050819055506000601160003373ffffffffffffffffffffffffffffffffffffffff1673ffffffffffffffffffffffffffffffffffffffff1681526020019081526020016000205414611b9e573460106000601160003373ffffffffffffffffffffffffffffffffffffffff1673ffffffffffffffffffffffffffffffffffffffff1681526020019081526020016000205481526020019081526020016000206001016000828254611b9291906141a9565b92505081905550611c93565b6001600d6000828254611bb191906141a9565b9250508190555060405180604001604052803373ffffffffffffffffffffffffffffffffffffffff1681526020013481525060106000600d54815260200190815260200160002060008201518160000160006101000a81548173ffffffffffffffffffffffffffffffffffffffff021916908373ffffffffffffffffffffffffffffffffffffffff16021790555060208201518160010155905050600d54601160003373ffffffffffffffffffffffffffffffffffffffff1673ffffffffffffffffffffffffffffffffffffffff168152602001908152602001600020819055505b7ffb690dcca591aa70d5b651edaf27fedd3e9f79a6ecfc63e10de202ad0a698e8a33604051611cc29190613c64565b60405180910390a1565b611cd4612078565b73ffffffffffffffffffffffffffffffffffffffff16611cf2611351565b73ffffffffffffffffffffffffffffffffffffffff1614611d48576040517f08c379a0000000000000000000000000000000000000000000000000000000008152600401611d3f90613f9a565b60405180910390fd5b60001515600b60009054906101000a900460ff16151514611d9e576040517f08c379a0000000000000000000000000000000000000000000000000000000008152600401611d9590613ffa565b60405180910390fd5b6001600b60006101000a81548160ff021916908315150217905550565b611dc3612078565b73ffffffffffffffffffffffffffffffffffffffff16611de1611351565b73ffffffffffffffffffffffffffffffffffffffff1614611e37576040517f08c379a0000000000000000000000000000000000000000000000000000000008152600401611e2e90613f9a565b60405180910390fd5b600073ffffffffffffffffffffffffffffffffffffffff168173ffffffffffffffffffffffffffffffffffffffff161415611ea7576040517f08c379a0000000000000000000000000000000000000000000000000000000008152600401611e9e90613dba565b60405180910390fd5b611eb081612473565b50565b611ebb612078565b73ffffffffffffffffffffffffffffffffffffffff16611ed9611351565b73ffffffffffffffffffffffffffffffffffffffff1614611f2f576040517f08c379a0000000000000000000000000000000000000000000000000000000008152600401611f2690613f9a565b60405180910390fd5b60011515600b60009054906101000a900460ff16151514611f85576040517f08c379a0000000000000000000000000000000000000000000000000000000008152600401611f7c90613e9a565b60405180910390fd5b6000600b60006101000a81548160ff021916908315150217905550565b60007f01ffc9a7000000000000000000000000000000000000000000000000000000007bffffffffffffffffffffffffffffffffffffffffffffffffffffffff1916827bffffffffffffffffffffffffffffffffffffffffffffffffffffffff1916149050919050565b60008073ffffffffffffffffffffffffffffffffffffffff166003600084815260200190815260200160002060009054906101000a900473ffffffffffffffffffffffffffffffffffffffff1673ffffffffffffffffffffffffffffffffffffffff1614159050919050565b600033905090565b816005600083815260200190815260200160002060006101000a81548173ffffffffffffffffffffffffffffffffffffffff021916908373ffffffffffffffffffffffffffffffffffffffff160217905550808273ffffffffffffffffffffffffffffffffffffffff166120f383610f05565b73ffffffffffffffffffffffffffffffffffffffff167f8c5be1e5ebec7d5bd14f71427d1e84f3dd0314c0f7b2291e5b200ac8c7c3b92560405160405180910390a45050565b60006121448261200c565b612183576040517f08c379a000000000000000000000000000000000000000000000000000000000815260040161217a90613e7a565b60405180910390fd5b600061218e83610f05565b90508073ffffffffffffffffffffffffffffffffffffffff168473ffffffffffffffffffffffffffffffffffffffff1614806121fd57508373ffffffffffffffffffffffffffffffffffffffff166121e5846109ce565b73ffffffffffffffffffffffffffffffffffffffff16145b8061220e575061220d818561199e565b5b91505092915050565b8273ffffffffffffffffffffffffffffffffffffffff1661223782610f05565b73ffffffffffffffffffffffffffffffffffffffff161461228d576040517f08c379a000000000000000000000000000000000000000000000000000000000815260040161228490613fba565b60405180910390fd5b600073ffffffffffffffffffffffffffffffffffffffff168273ffffffffffffffffffffffffffffffffffffffff1614156122fd576040517f08c379a00000000000000000000000000000000000000000000000000000000081526004016122f490613dfa565b60405180910390fd5b612308838383612850565b612313600082612080565b6001600460008573ffffffffffffffffffffffffffffffffffffffff1673ffffffffffffffffffffffffffffffffffffffff16815260200190815260200160002060008282546123639190614230565b925050819055506001600460008473ffffffffffffffffffffffffffffffffffffffff1673ffffffffffffffffffffffffffffffffffffffff16815260200190815260200160002060008282546123ba91906141a9565b92505081905550816003600083815260200190815260200160002060006101000a81548173ffffffffffffffffffffffffffffffffffffffff021916908373ffffffffffffffffffffffffffffffffffffffff160217905550808273ffffffffffffffffffffffffffffffffffffffff168473ffffffffffffffffffffffffffffffffffffffff167fddf252ad1be2c89b69c2b068fc378daa952ba7f163c4a11628f55a4df523b3ef60405160405180910390a4505050565b60008060009054906101000a900473ffffffffffffffffffffffffffffffffffffffff169050816000806101000a81548173ffffffffffffffffffffffffffffffffffffffff021916908373ffffffffffffffffffffffffffffffffffffffff1602179055508173ffffffffffffffffffffffffffffffffffffffff168173ffffffffffffffffffffffffffffffffffffffff167f8be0079c531659141344cd1fd0a4f28419497f9722a3daafe3b4186f6b6457e060405160405180910390a35050565b8173ffffffffffffffffffffffffffffffffffffffff168373ffffffffffffffffffffffffffffffffffffffff1614156125a6576040517f08c379a000000000000000000000000000000000000000000000000000000000815260040161259d90613e1a565b60405180910390fd5b80600660008573ffffffffffffffffffffffffffffffffffffffff1673ffffffffffffffffffffffffffffffffffffffff16815260200190815260200160002060008473ffffffffffffffffffffffffffffffffffffffff1673ffffffffffffffffffffffffffffffffffffffff16815260200190815260200160002060006101000a81548160ff0219169083151502179055508173ffffffffffffffffffffffffffffffffffffffff168373ffffffffffffffffffffffffffffffffffffffff167f17307eab39ab6107e8899845ad3d59bd9653f200f220920489ca2b5937696c31836040516126979190613d1d565b60405180910390a3505050565b6126af848484612217565b6126bb84848484612855565b6126fa576040517f08c379a00000000000000000000000000000000000000000000000000000000081526004016126f190613d7a565b60405180910390fd5b50505050565b606060405180602001604052806000815250905090565b60606127228261200c565b612761576040517f08c379a000000000000000000000000000000000000000000000000000000000815260040161275890613fda565b60405180910390fd5b600061276b612700565b9050600081511161278b57604051806020016040528060008152506127b6565b80612795846129ec565b6040516020016127a6929190613c40565b6040516020818303038152906040525b915050919050565b6127d8828260405180602001604052806000815250612b99565b5050565b6127e58261200c565b612824576040517f08c379a000000000000000000000000000000000000000000000000000000000815260040161281b90613f1a565b60405180910390fd5b8060076000848152602001908152602001600020908051906020019061284b929190612dd5565b505050565b505050565b60006128768473ffffffffffffffffffffffffffffffffffffffff16612bf4565b156129df578373ffffffffffffffffffffffffffffffffffffffff1663150b7a0261289f612078565b8786866040518563ffffffff1660e01b81526004016128c19493929190613ca8565b602060405180830381600087803b1580156128db57600080fd5b505af192505050801561290c57506040513d601f19601f820116820180604052508101906129099190613181565b60015b61298f573d806000811461293c576040519150601f19603f3d011682016040523d82523d6000602084013e612941565b606091505b50600081511415612987576040517f08c379a000000000000000000000000000000000000000000000000000000000815260040161297e90613d7a565b60405180910390fd5b805181602001fd5b63150b7a0260e01b7bffffffffffffffffffffffffffffffffffffffffffffffffffffffff1916817bffffffffffffffffffffffffffffffffffffffffffffffffffffffff1916149150506129e4565b600190505b949350505050565b60606000821415612a34576040518060400160405280600181526020017f30000000000000000000000000000000000000000000000000000000000000008152509050612b94565b600082905060005b60008214612a66578080612a4f90614382565b915050600a82612a5f91906141ff565b9150612a3c565b60008167ffffffffffffffff811115612aa8577f4e487b7100000000000000000000000000000000000000000000000000000000600052604160045260246000fd5b6040519080825280601f01601f191660200182016040528015612ada5781602001600182028036833780820191505090505b5090505b60008514612b8d57600182612af39190614230565b9150600a85612b0291906143cb565b6030612b0e91906141a9565b60f81b818381518110612b4a577f4e487b7100000000000000000000000000000000000000000000000000000000600052603260045260246000fd5b60200101907effffffffffffffffffffffffffffffffffffffffffffffffffffffffffffff1916908160001a905350600a85612b8691906141ff565b9450612ade565b8093505050505b919050565b612ba38383612c07565b612bb06000848484612855565b612bef576040517f08c379a0000000000000000000000000000000000000000000000000000000008152600401612be690613d7a565b60405180910390fd5b505050565b600080823b905060008111915050919050565b600073ffffffffffffffffffffffffffffffffffffffff168273ffffffffffffffffffffffffffffffffffffffff161415612c77576040517f08c379a0000000000000000000000000000000000000000000000000000000008152600401612c6e90613f3a565b60405180910390fd5b612c808161200c565b15612cc0576040517f08c379a0000000000000000000000000000000000000000000000000000000008152600401612cb790613dda565b60405180910390fd5b612ccc60008383612850565b6001600460008473ffffffffffffffffffffffffffffffffffffffff1673ffffffffffffffffffffffffffffffffffffffff1681526020019081526020016000206000828254612d1c91906141a9565b92505081905550816003600083815260200190815260200160002060006101000a81548173ffffffffffffffffffffffffffffffffffffffff021916908373ffffffffffffffffffffffffffffffffffffffff160217905550808273ffffffffffffffffffffffffffffffffffffffff16600073ffffffffffffffffffffffffffffffffffffffff167fddf252ad1be2c89b69c2b068fc378daa952ba7f163c4a11628f55a4df523b3ef60405160405180910390a45050565b828054612de190614350565b90600052602060002090601f016020900481019282612e035760008555612e4a565b82601f10612e1c57805160ff1916838001178555612e4a565b82800160010185558215612e4a579182015b82811115612e49578251825591602001919060010190612e2e565b5b509050612e579190612e5b565b5090565b5b80821115612e74576000816000905550600101612e5c565b5090565b6000612e8b612e8684614106565b6140d5565b905082815260208101848484011115612ea357600080fd5b612eae84828561430e565b509392505050565b6000612ec9612ec484614136565b6140d5565b905082815260208101848484011115612ee157600080fd5b612eec84828561430e565b509392505050565b600081359050612f03816144c9565b92915050565b600081359050612f18816144e0565b92915050565b600081359050612f2d816144f7565b92915050565b600081519050612f42816144f7565b92915050565b600082601f830112612f5957600080fd5b8135612f69848260208601612e78565b91505092915050565b600082601f830112612f8357600080fd5b8135612f93848260208601612eb6565b91505092915050565b600081359050612fab8161450e565b92915050565b600060208284031215612fc357600080fd5b6000612fd184828501612ef4565b91505092915050565b60008060408385031215612fed57600080fd5b6000612ffb85828601612ef4565b925050602061300c85828601612ef4565b9150509250929050565b60008060006060848603121561302b57600080fd5b600061303986828701612ef4565b935050602061304a86828701612ef4565b925050604061305b86828701612f9c565b9150509250925092565b6000806000806080858703121561307b57600080fd5b600061308987828801612ef4565b945050602061309a87828801612ef4565b93505060406130ab87828801612f9c565b925050606085013567ffffffffffffffff8111156130c857600080fd5b6130d487828801612f48565b91505092959194509250565b600080604083850312156130f357600080fd5b600061310185828601612ef4565b925050602061311285828601612f09565b9150509250929050565b6000806040838503121561312f57600080fd5b600061313d85828601612ef4565b925050602061314e85828601612f9c565b9150509250929050565b60006020828403121561316a57600080fd5b600061317884828501612f1e565b91505092915050565b60006020828403121561319357600080fd5b60006131a184828501612f33565b91505092915050565b6000602082840312156131bc57600080fd5b600082013567ffffffffffffffff8111156131d657600080fd5b6131e284828501612f72565b91505092915050565b6000602082840312156131fd57600080fd5b600061320b84828501612f9c565b91505092915050565b6000806040838503121561322757600080fd5b600061323585828601612f9c565b925050602061324685828601612f9c565b9150509250929050565b613259816142d8565b82525050565b61326881614264565b82525050565b61327781614276565b82525050565b600061328882614166565b613292818561417c565b93506132a281856020860161431d565b6132ab816144b8565b840191505092915050565b60006132c182614171565b6132cb818561418d565b93506132db81856020860161431d565b6132e4816144b8565b840191505092915050565b60006132fa82614171565b613304818561419e565b935061331481856020860161431d565b80840191505092915050565b600061332d60188361418d565b91507f43616d706169676e20686173206e6f206e667420736c6f7400000000000000006000830152602082019050919050565b600061336d60328361418d565b91507f4552433732313a207472616e7366657220746f206e6f6e20455243373231526560008301527f63656976657220696d706c656d656e74657200000000000000000000000000006020830152604082019050919050565b60006133d360128361418d565b91507f43616d706169676e20697320636c6f73656400000000000000000000000000006000830152602082019050919050565b600061341360268361418d565b91507f4f776e61626c653a206e6577206f776e657220697320746865207a65726f206160008301527f64647265737300000000000000000000000000000000000000000000000000006020830152604082019050919050565b6000613479601c8361418d565b91507f4552433732313a20746f6b656e20616c7265616479206d696e746564000000006000830152602082019050919050565b60006134b960248361418d565b91507f4552433732313a207472616e7366657220746f20746865207a65726f2061646460008301527f72657373000000000000000000000000000000000000000000000000000000006020830152604082019050919050565b600061351f60198361418d565b91507f4552433732313a20617070726f766520746f2063616c6c6572000000000000006000830152602082019050919050565b600061355f60108361418d565b91507f4e6f7420656e6f756768207072696365000000000000000000000000000000006000830152602082019050919050565b600061359f60158361418d565b91507f43616d706169676e206f7574206f6620746f6b656e00000000000000000000006000830152602082019050919050565b60006135df602c8361418d565b91507f4552433732313a206f70657261746f7220717565727920666f72206e6f6e657860008301527f697374656e7420746f6b656e00000000000000000000000000000000000000006020830152604082019050919050565b600061364560208361418d565b91507f43616d706169676e2068617320616c7265616479206265656e206163746976656000830152602082019050919050565b600061368560388361418d565b91507f4552433732313a20617070726f76652063616c6c6572206973206e6f74206f7760008301527f6e6572206e6f7220617070726f76656420666f7220616c6c00000000000000006020830152604082019050919050565b60006136eb602a8361418d565b91507f4552433732313a2062616c616e636520717565727920666f7220746865207a6560008301527f726f2061646472657373000000000000000000000000000000000000000000006020830152604082019050919050565b600061375160298361418d565b91507f4552433732313a206f776e657220717565727920666f72206e6f6e657869737460008301527f656e7420746f6b656e00000000000000000000000000000000000000000000006020830152604082019050919050565b60006137b7602e8361418d565b91507f45524337323155524953746f726167653a2055524920736574206f66206e6f6e60008301527f6578697374656e7420746f6b656e0000000000000000000000000000000000006020830152604082019050919050565b600061381d60208361418d565b91507f4552433732313a206d696e7420746f20746865207a65726f20616464726573736000830152602082019050919050565b600061385d60318361418d565b91507f45524337323155524953746f726167653a2055524920717565727920666f722060008301527f6e6f6e6578697374656e7420746f6b656e0000000000000000000000000000006020830152604082019050919050565b60006138c3602c8361418d565b91507f4552433732313a20617070726f76656420717565727920666f72206e6f6e657860008301527f697374656e7420746f6b656e00000000000000000000000000000000000000006020830152604082019050919050565b600061392960208361418d565b91507f4f776e61626c653a2063616c6c6572206973206e6f7420746865206f776e65726000830152602082019050919050565b600061396960298361418d565b91507f4552433732313a207472616e73666572206f6620746f6b656e2074686174206960008301527f73206e6f74206f776e00000000000000000000000000000000000000000000006020830152604082019050919050565b60006139cf602f8361418d565b91507f4552433732314d657461646174613a2055524920717565727920666f72206e6f60008301527f6e6578697374656e7420746f6b656e00000000000000000000000000000000006020830152604082019050919050565b6000613a3560208361418d565b91507f43616d706169676e2068617320616c7265616479206265656e20636c6f7365646000830152602082019050919050565b6000613a7560198361418d565b91507f546f6b656e55524920697320616c72656164792074616b656e000000000000006000830152602082019050919050565b6000613ab560218361418d565b91507f4552433732313a20617070726f76616c20746f2063757272656e74206f776e6560008301527f72000000000000000000000000000000000000000000000000000000000000006020830152604082019050919050565b6000613b1b60318361418d565b91507f4552433732313a207472616e736665722063616c6c6572206973206e6f74206f60008301527f776e6572206e6f7220617070726f7665640000000000000000000000000000006020830152604082019050919050565b6000613b81601a8361418d565b91507f43616d706169676e206973206e6f7420636c6f736564207965740000000000006000830152602082019050919050565b6000613bc1602e8361418d565b91507f54686973206164647265737320616c7265616479206170706c69656420666f7260008301527f20746869732063616d706169676e0000000000000000000000000000000000006020830152604082019050919050565b613c23816142ce565b82525050565b6000613c3582846132ef565b915081905092915050565b6000613c4c82856132ef565b9150613c5882846132ef565b91508190509392505050565b6000602082019050613c79600083018461325f565b92915050565b6000604082019050613c946000830185613250565b613ca16020830184613c1a565b9392505050565b6000608082019050613cbd600083018761325f565b613cca602083018661325f565b613cd76040830185613c1a565b8181036060830152613ce9818461327d565b905095945050505050565b6000604082019050613d09600083018561325f565b613d166020830184613c1a565b9392505050565b6000602082019050613d32600083018461326e565b92915050565b60006020820190508181036000830152613d5281846132b6565b905092915050565b60006020820190508181036000830152613d7381613320565b9050919050565b60006020820190508181036000830152613d9381613360565b9050919050565b60006020820190508181036000830152613db3816133c6565b9050919050565b60006020820190508181036000830152613dd381613406565b9050919050565b60006020820190508181036000830152613df38161346c565b9050919050565b60006020820190508181036000830152613e13816134ac565b9050919050565b60006020820190508181036000830152613e3381613512565b9050919050565b60006020820190508181036000830152613e5381613552565b9050919050565b60006020820190508181036000830152613e7381613592565b9050919050565b60006020820190508181036000830152613e93816135d2565b9050919050565b60006020820190508181036000830152613eb381613638565b9050919050565b60006020820190508181036000830152613ed381613678565b9050919050565b60006020820190508181036000830152613ef3816136de565b9050919050565b60006020820190508181036000830152613f1381613744565b9050919050565b60006020820190508181036000830152613f33816137aa565b9050919050565b60006020820190508181036000830152613f5381613810565b9050919050565b60006020820190508181036000830152613f7381613850565b9050919050565b60006020820190508181036000830152613f93816138b6565b9050919050565b60006020820190508181036000830152613fb38161391c565b9050919050565b60006020820190508181036000830152613fd38161395c565b9050919050565b60006020820190508181036000830152613ff3816139c2565b9050919050565b6000602082019050818103600083015261401381613a28565b9050919050565b6000602082019050818103600083015261403381613a68565b9050919050565b6000602082019050818103600083015261405381613aa8565b9050919050565b6000602082019050818103600083015261407381613b0e565b9050919050565b6000602082019050818103600083015261409381613b74565b9050919050565b600060208201905081810360008301526140b381613bb4565b9050919050565b60006020820190506140cf6000830184613c1a565b92915050565b6000604051905081810181811067ffffffffffffffff821117156140fc576140fb614489565b5b8060405250919050565b600067ffffffffffffffff82111561412157614120614489565b5b601f19601f8301169050602081019050919050565b600067ffffffffffffffff82111561415157614150614489565b5b601f19601f8301169050602081019050919050565b600081519050919050565b600081519050919050565b600082825260208201905092915050565b600082825260208201905092915050565b600081905092915050565b60006141b4826142ce565b91506141bf836142ce565b9250827fffffffffffffffffffffffffffffffffffffffffffffffffffffffffffffffff038211156141f4576141f36143fc565b5b828201905092915050565b600061420a826142ce565b9150614215836142ce565b9250826142255761422461442b565b5b828204905092915050565b600061423b826142ce565b9150614246836142ce565b925082821015614259576142586143fc565b5b828203905092915050565b600061426f826142ae565b9050919050565b60008115159050919050565b60007fffffffff0000000000000000000000000000000000000000000000000000000082169050919050565b600073ffffffffffffffffffffffffffffffffffffffff82169050919050565b6000819050919050565b60006142e3826142ea565b9050919050565b60006142f5826142fc565b9050919050565b6000614307826142ae565b9050919050565b82818337600083830152505050565b60005b8381101561433b578082015181840152602081019050614320565b8381111561434a576000848401525b50505050565b6000600282049050600182168061436857607f821691505b6020821081141561437c5761437b61445a565b5b50919050565b600061438d826142ce565b91507fffffffffffffffffffffffffffffffffffffffffffffffffffffffffffffffff8214156143c0576143bf6143fc565b5b600182019050919050565b60006143d6826142ce565b91506143e1836142ce565b9250826143f1576143f061442b565b5b828206905092915050565b7f4e487b7100000000000000000000000000000000000000000000000000000000600052601160045260246000fd5b7f4e487b7100000000000000000000000000000000000000000000000000000000600052601260045260246000fd5b7f4e487b7100000000000000000000000000000000000000000000000000000000600052602260045260246000fd5b7f4e487b7100000000000000000000000000000000000000000000000000000000600052604160045260246000fd5b6000601f19601f8301169050919050565b6144d281614264565b81146144dd57600080fd5b50565b6144e981614276565b81146144f457600080fd5b50565b61450081614282565b811461450b57600080fd5b50565b614517816142ce565b811461452257600080fd5b5056fea2646970667358221220be0022655fd01b2b38f6be33a4fd9797aed7c26217d4f88c6b23bde6491c2ee164736f6c63430008000033a264697066735822122001b3378967b5b7267315db026419d78f25269c1abed093e38edeb02d73351b7b64736f6c63430008000033",
  "immutableReferences": {},
  "source": "// SPDX-License-Identifier: MIT\npragma solidity ^0.8.0;\n\nimport \"@openzeppelin/contracts/access/Ownable.sol\";\nimport \"@openzeppelin/contracts/security/ReentrancyGuard.sol\";\nimport \"@openzeppelin/contracts/token/ERC20/IERC20.sol\";\nimport \"@openzeppelin/contracts/token/ERC721/ERC721.sol\";\nimport \"@openzeppelin/contracts/token/ERC721/extensions/ERC721URIStorage.sol\";\nimport \"@openzeppelin/contracts/utils/Context.sol\";\nimport \"@openzeppelin/contracts/utils/Counters.sol\";\nimport \"./CampaignNFT.sol\";\n\n\ncontract Store is Ownable, ReentrancyGuard {\n    \n    struct Campaign {\n        address creator;\n        address wallet;\n        string name;\n        uint id;\n    }\n    uint public _campaign_count;\n    mapping(address => bool) public whitelist; // user in whitelist can create campaign\n    mapping(uint => Campaign) public campaigns;\n    event campaignCreated(uint _campaignId, address _creator, address _wallet, address _token);\n\n    modifier onlyWhitelister() {\n        require(\n            whitelist[msg.sender] == true,\n            \"Ownable: caller is not in the whitelist\"\n        );\n        _;\n    }    \n\n    modifier onlyOwnerOfCampaign(uint _campaignId) {\n        require(\n            msg.sender == campaigns[_campaignId].creator,\n            \"You are not owner of campaign\"\n            );\n        _;\n    }\n    // whitelist methods\n    function addWhitelister(address _user) external onlyOwner {\n        whitelist[_user] = true;\n    }\n    function removeWhitelister(address _user) external onlyOwner {\n        whitelist[_user] = false;\n    }\n    function isWhitelister(address _user) external view returns (bool) {\n        return whitelist[_user];\n    \n    }\n    // campaign methods\n    function createCampaign(string memory _name, uint _slot, uint _price) public onlyWhitelister {\n\n        CampaignNFT newCampaign = new CampaignNFT(msg.sender, _name, _slot, _price);\n        campaigns[_campaign_count] = Campaign(msg.sender, address(newCampaign), _name, _campaign_count);\n        _campaign_count += 1;\n    }\n    \n}\n\n",
  "sourcePath": "/home/khangt1k25/Code/donationproject/truffle/contracts/Store.sol",
  "compiler": {
    "name": "solc",
    "version": "0.8.0+commit.c7dfd78e.Emscripten.clang"
  },
  "schemaVersion": "3.4.3",
  "updatedAt": "2022-01-13T13:55:13.010Z",
  "networkType": "ethereum",
  "devdoc": {
    "kind": "dev",
    "methods": {
      "owner()": {
        "details": "Returns the address of the current owner."
      },
      "renounceOwnership()": {
        "details": "Leaves the contract without owner. It will not be possible to call `onlyOwner` functions anymore. Can only be called by the current owner. NOTE: Renouncing ownership will leave the contract without an owner, thereby removing any functionality that is only available to the owner."
      },
      "transferOwnership(address)": {
        "details": "Transfers ownership of the contract to a new account (`newOwner`). Can only be called by the current owner."
      }
    },
    "version": 1
  },
  "userdoc": {
    "kind": "user",
    "methods": {},
    "version": 1
  }
}